{
  "_format": "hh-sol-artifact-1",
  "contractName": "Demo",
  "sourceName": "contracts/Demo.sol",
  "abi": [
    {
      "inputs": [],
      "name": "name",
      "outputs": [
        {
          "internalType": "string",
          "name": "",
          "type": "string"
        }
      ],
      "stateMutability": "view",
      "type": "function"
    },
    {
      "inputs": [
        {
          "internalType": "string",
          "name": "_name",
          "type": "string"
        }
      ],
      "name": "setName",
      "outputs": [],
      "stateMutability": "nonpayable",
      "type": "function"
    },
    {
      "inputs": [],
      "name": "version",
      "outputs": [
        {
          "internalType": "string",
          "name": "",
          "type": "string"
        }
      ],
      "stateMutability": "pure",
      "type": "function"
    }
  ],
  "bytecode": "0x6080604052348015600f57600080fd5b506106de8061001f6000396000f3fe608060405234801561001057600080fd5b50600436106100415760003560e01c806306fdde031461004657806354fd4d5014610064578063c47f002714610082575b600080fd5b61004e61009e565b60405161005b919061020c565b60405180910390f35b61006c61012c565b604051610079919061020c565b60405180910390f35b61009c60048036038101906100979190610377565b610169565b005b600080546100ab906103ef565b80601f01602080910402602001604051908101604052809291908181526020018280546100d7906103ef565b80156101245780601f106100f957610100808354040283529160200191610124565b820191906000526020600020905b81548152906001019060200180831161010757829003601f168201915b505050505081565b60606040518060400160405280600581526020017f312e302e30000000000000000000000000000000000000000000000000000000815250905090565b806000908161017891906105d6565b5050565b600081519050919050565b600082825260208201905092915050565b60005b838110156101b657808201518184015260208101905061019b565b60008484015250505050565b6000601f19601f8301169050919050565b60006101de8261017c565b6101e88185610187565b93506101f8818560208601610198565b610201816101c2565b840191505092915050565b6000602082019050818103600083015261022681846101d3565b905092915050565b6000604051905090565b600080fd5b600080fd5b600080fd5b600080fd5b7f4e487b7100000000000000000000000000000000000000000000000000000000600052604160045260246000fd5b610284826101c2565b810181811067ffffffffffffffff821117156102a3576102a261024c565b5b80604052505050565b60006102b661022e565b90506102c2828261027b565b919050565b600067ffffffffffffffff8211156102e2576102e161024c565b5b6102eb826101c2565b9050602081019050919050565b82818337600083830152505050565b600061031a610315846102c7565b6102ac565b90508281526020810184848401111561033657610335610247565b5b6103418482856102f8565b509392505050565b600082601f83011261035e5761035d610242565b5b813561036e848260208601610307565b91505092915050565b60006020828403121561038d5761038c610238565b5b600082013567ffffffffffffffff8111156103ab576103aa61023d565b5b6103b784828501610349565b91505092915050565b7f4e487b7100000000000000000000000000000000000000000000000000000000600052602260045260246000fd5b6000600282049050600182168061040757607f821691505b60208210810361041a576104196103c0565b5b50919050565b60008190508160005260206000209050919050565b60006020601f8301049050919050565b600082821b905092915050565b6000600883026104827fffffffffffffffffffffffffffffffffffffffffffffffffffffffffffffffff82610445565b61048c8683610445565b95508019841693508086168417925050509392505050565b6000819050919050565b6000819050919050565b60006104d36104ce6104c9846104a4565b6104ae565b6104a4565b9050919050565b6000819050919050565b6104ed836104b8565b6105016104f9826104da565b848454610452565b825550505050565b600090565b610516610509565b6105218184846104e4565b505050565b5b818110156105455761053a60008261050e565b600181019050610527565b5050565b601f82111561058a5761055b81610420565b61056484610435565b81016020851015610573578190505b61058761057f85610435565b830182610526565b50505b505050565b600082821c905092915050565b60006105ad6000198460080261058f565b1980831691505092915050565b60006105c6838361059c565b9150826002028217905092915050565b6105df8261017c565b67ffffffffffffffff8111156105f8576105f761024c565b5b61060282546103ef565b61060d828285610549565b600060209050601f831160018114610640576000841561062e578287015190505b61063885826105ba565b8655506106a0565b601f19841661064e86610420565b60005b8281101561067657848901518255600182019150602085019450602081019050610651565b86831015610693578489015161068f601f89168261059c565b8355505b6001600288020188555050505b50505050505056fea2646970667358221220ef9c1775e72592eb3724ab3e300a44fa0d54dba8a97f0292e149a0d3d4f671fd64736f6c634300081c0033",
  "linkReferences": {},
  "deployedLinkReferences": {}
}