{
  "_format": "hh-sol-artifact-1",
  "contractName": "NFTCollection",
  "sourceName": "contracts/NFTCollection.sol",
  "abi": [
    {
      "inputs": [
        {
          "internalType": "address",
          "name": "sender",
          "type": "address"
        },
        {
          "internalType": "uint256",
          "name": "tokenId",
          "type": "uint256"
        },
        {
          "internalType": "address",
          "name": "owner",
          "type": "address"
        }
      ],
      "name": "ERC721IncorrectOwner",
      "type": "error"
    },
    {
      "inputs": [
        {
          "internalType": "address",
          "name": "operator",
          "type": "address"
        },
        {
          "internalType": "uint256",
          "name": "tokenId",
          "type": "uint256"
        }
      ],
      "name": "ERC721InsufficientApproval",
      "type": "error"
    },
    {
      "inputs": [
        {
          "internalType": "address",
          "name": "approver",
          "type": "address"
        }
      ],
      "name": "ERC721InvalidApprover",
      "type": "error"
    },
    {
      "inputs": [
        {
          "internalType": "address",
          "name": "operator",
          "type": "address"
        }
      ],
      "name": "ERC721InvalidOperator",
      "type": "error"
    },
    {
      "inputs": [
        {
          "internalType": "address",
          "name": "owner",
          "type": "address"
        }
      ],
      "name": "ERC721InvalidOwner",
      "type": "error"
    },
    {
      "inputs": [
        {
          "internalType": "address",
          "name": "receiver",
          "type": "address"
        }
      ],
      "name": "ERC721InvalidReceiver",
      "type": "error"
    },
    {
      "inputs": [
        {
          "internalType": "address",
          "name": "sender",
          "type": "address"
        }
      ],
      "name": "ERC721InvalidSender",
      "type": "error"
    },
    {
      "inputs": [
        {
          "internalType": "uint256",
          "name": "tokenId",
          "type": "uint256"
        }
      ],
      "name": "ERC721NonexistentToken",
      "type": "error"
    },
    {
      "inputs": [],
      "name": "InvalidInitialization",
      "type": "error"
    },
    {
      "inputs": [],
      "name": "NotInitializing",
      "type": "error"
    },
    {
      "inputs": [
        {
          "internalType": "address",
          "name": "owner",
          "type": "address"
        }
      ],
      "name": "OwnableInvalidOwner",
      "type": "error"
    },
    {
      "inputs": [
        {
          "internalType": "address",
          "name": "account",
          "type": "address"
        }
      ],
      "name": "OwnableUnauthorizedAccount",
      "type": "error"
    },
    {
      "anonymous": false,
      "inputs": [
        {
          "indexed": true,
          "internalType": "address",
          "name": "owner",
          "type": "address"
        },
        {
          "indexed": true,
          "internalType": "address",
          "name": "approved",
          "type": "address"
        },
        {
          "indexed": true,
          "internalType": "uint256",
          "name": "tokenId",
          "type": "uint256"
        }
      ],
      "name": "Approval",
      "type": "event"
    },
    {
      "anonymous": false,
      "inputs": [
        {
          "indexed": true,
          "internalType": "address",
          "name": "owner",
          "type": "address"
        },
        {
          "indexed": true,
          "internalType": "address",
          "name": "operator",
          "type": "address"
        },
        {
          "indexed": false,
          "internalType": "bool",
          "name": "approved",
          "type": "bool"
        }
      ],
      "name": "ApprovalForAll",
      "type": "event"
    },
    {
      "anonymous": false,
      "inputs": [
        {
          "indexed": false,
          "internalType": "uint256",
          "name": "_fromTokenId",
          "type": "uint256"
        },
        {
          "indexed": false,
          "internalType": "uint256",
          "name": "_toTokenId",
          "type": "uint256"
        }
      ],
      "name": "BatchMetadataUpdate",
      "type": "event"
    },
    {
      "anonymous": false,
      "inputs": [
        {
          "indexed": false,
          "internalType": "uint64",
          "name": "version",
          "type": "uint64"
        }
      ],
      "name": "Initialized",
      "type": "event"
    },
    {
      "anonymous": false,
      "inputs": [
        {
          "indexed": false,
          "internalType": "uint256",
          "name": "_tokenId",
          "type": "uint256"
        }
      ],
      "name": "MetadataUpdate",
      "type": "event"
    },
    {
      "anonymous": false,
      "inputs": [
        {
          "indexed": true,
          "internalType": "address",
          "name": "previousOwner",
          "type": "address"
        },
        {
          "indexed": true,
          "internalType": "address",
          "name": "newOwner",
          "type": "address"
        }
      ],
      "name": "OwnershipTransferred",
      "type": "event"
    },
    {
      "anonymous": false,
      "inputs": [
        {
          "indexed": true,
          "internalType": "address",
          "name": "from",
          "type": "address"
        },
        {
          "indexed": true,
          "internalType": "address",
          "name": "to",
          "type": "address"
        },
        {
          "indexed": true,
          "internalType": "uint256",
          "name": "tokenId",
          "type": "uint256"
        }
      ],
      "name": "Transfer",
      "type": "event"
    },
    {
      "inputs": [
        {
          "internalType": "address",
          "name": "to",
          "type": "address"
        },
        {
          "internalType": "uint256",
          "name": "tokenId",
          "type": "uint256"
        }
      ],
      "name": "approve",
      "outputs": [],
      "stateMutability": "nonpayable",
      "type": "function"
    },
    {
      "inputs": [
        {
          "internalType": "address",
          "name": "owner",
          "type": "address"
        }
      ],
      "name": "balanceOf",
      "outputs": [
        {
          "internalType": "uint256",
          "name": "",
          "type": "uint256"
        }
      ],
      "stateMutability": "view",
      "type": "function"
    },
    {
      "inputs": [
        {
          "internalType": "uint256",
          "name": "tokenId",
          "type": "uint256"
        }
      ],
      "name": "buyNFT",
      "outputs": [],
      "stateMutability": "payable",
      "type": "function"
    },
    {
      "inputs": [
        {
          "internalType": "uint256",
          "name": "tokenId",
          "type": "uint256"
        }
      ],
      "name": "getApproved",
      "outputs": [
        {
          "internalType": "address",
          "name": "",
          "type": "address"
        }
      ],
      "stateMutability": "view",
      "type": "function"
    },
    {
      "inputs": [],
      "name": "getResourceBase",
      "outputs": [
        {
          "internalType": "string",
          "name": "",
          "type": "string"
        }
      ],
      "stateMutability": "view",
      "type": "function"
    },
    {
      "inputs": [],
      "name": "initialize",
      "outputs": [],
      "stateMutability": "nonpayable",
      "type": "function"
    },
    {
      "inputs": [
        {
          "internalType": "address",
          "name": "owner",
          "type": "address"
        },
        {
          "internalType": "address",
          "name": "operator",
          "type": "address"
        }
      ],
      "name": "isApprovedForAll",
      "outputs": [
        {
          "internalType": "bool",
          "name": "",
          "type": "bool"
        }
      ],
      "stateMutability": "view",
      "type": "function"
    },
    {
      "inputs": [
        {
          "internalType": "string",
          "name": "cid",
          "type": "string"
        },
        {
          "internalType": "uint256",
          "name": "price",
          "type": "uint256"
        }
      ],
      "name": "mintNFT",
      "outputs": [
        {
          "internalType": "uint256",
          "name": "",
          "type": "uint256"
        }
      ],
      "stateMutability": "nonpayable",
      "type": "function"
    },
    {
      "inputs": [
        {
          "internalType": "string",
          "name": "cid",
          "type": "string"
        }
      ],
      "name": "mintNFTWithoutPrice",
      "outputs": [
        {
          "internalType": "uint256",
          "name": "",
          "type": "uint256"
        }
      ],
      "stateMutability": "nonpayable",
      "type": "function"
    },
    {
      "inputs": [],
      "name": "name",
      "outputs": [
        {
          "internalType": "string",
          "name": "",
          "type": "string"
        }
      ],
      "stateMutability": "view",
      "type": "function"
    },
    {
      "inputs": [
        {
          "internalType": "uint256",
          "name": "",
          "type": "uint256"
        }
      ],
      "name": "nfts",
      "outputs": [
        {
          "internalType": "uint256",
          "name": "price",
          "type": "uint256"
        },
        {
          "internalType": "bool",
          "name": "isForSale",
          "type": "bool"
        }
      ],
      "stateMutability": "view",
      "type": "function"
    },
    {
      "inputs": [],
      "name": "owner",
      "outputs": [
        {
          "internalType": "address",
          "name": "",
          "type": "address"
        }
      ],
      "stateMutability": "view",
      "type": "function"
    },
    {
      "inputs": [
        {
          "internalType": "uint256",
          "name": "tokenId",
          "type": "uint256"
        }
      ],
      "name": "ownerOf",
      "outputs": [
        {
          "internalType": "address",
          "name": "",
          "type": "address"
        }
      ],
      "stateMutability": "view",
      "type": "function"
    },
    {
      "inputs": [],
      "name": "renounceOwnership",
      "outputs": [],
      "stateMutability": "nonpayable",
      "type": "function"
    },
    {
      "inputs": [
        {
          "internalType": "address",
          "name": "from",
          "type": "address"
        },
        {
          "internalType": "address",
          "name": "to",
          "type": "address"
        },
        {
          "internalType": "uint256",
          "name": "tokenId",
          "type": "uint256"
        }
      ],
      "name": "safeTransferFrom",
      "outputs": [],
      "stateMutability": "nonpayable",
      "type": "function"
    },
    {
      "inputs": [
        {
          "internalType": "address",
          "name": "from",
          "type": "address"
        },
        {
          "internalType": "address",
          "name": "to",
          "type": "address"
        },
        {
          "internalType": "uint256",
          "name": "tokenId",
          "type": "uint256"
        },
        {
          "internalType": "bytes",
          "name": "data",
          "type": "bytes"
        }
      ],
      "name": "safeTransferFrom",
      "outputs": [],
      "stateMutability": "nonpayable",
      "type": "function"
    },
    {
      "inputs": [
        {
          "internalType": "address",
          "name": "operator",
          "type": "address"
        },
        {
          "internalType": "bool",
          "name": "approved",
          "type": "bool"
        }
      ],
      "name": "setApprovalForAll",
      "outputs": [],
      "stateMutability": "nonpayable",
      "type": "function"
    },
    {
      "inputs": [
        {
          "internalType": "uint256",
          "name": "tokenId",
          "type": "uint256"
        },
        {
          "internalType": "uint256",
          "name": "price",
          "type": "uint256"
        }
      ],
      "name": "setForSale",
      "outputs": [],
      "stateMutability": "nonpayable",
      "type": "function"
    },
    {
      "inputs": [
        {
          "internalType": "string",
          "name": "resourceBase",
          "type": "string"
        }
      ],
      "name": "setResourceBase",
      "outputs": [],
      "stateMutability": "nonpayable",
      "type": "function"
    },
    {
      "inputs": [
        {
          "internalType": "bytes4",
          "name": "interfaceId",
          "type": "bytes4"
        }
      ],
      "name": "supportsInterface",
      "outputs": [
        {
          "internalType": "bool",
          "name": "",
          "type": "bool"
        }
      ],
      "stateMutability": "view",
      "type": "function"
    },
    {
      "inputs": [],
      "name": "symbol",
      "outputs": [
        {
          "internalType": "string",
          "name": "",
          "type": "string"
        }
      ],
      "stateMutability": "view",
      "type": "function"
    },
    {
      "inputs": [
        {
          "internalType": "uint256",
          "name": "tokenId",
          "type": "uint256"
        }
      ],
      "name": "tokenURI",
      "outputs": [
        {
          "internalType": "string",
          "name": "",
          "type": "string"
        }
      ],
      "stateMutability": "view",
      "type": "function"
    },
    {
      "inputs": [
        {
          "internalType": "address",
          "name": "from",
          "type": "address"
        },
        {
          "internalType": "address",
          "name": "to",
          "type": "address"
        },
        {
          "internalType": "uint256",
          "name": "tokenId",
          "type": "uint256"
        }
      ],
      "name": "transferFrom",
      "outputs": [],
      "stateMutability": "nonpayable",
      "type": "function"
    },
    {
      "inputs": [
        {
          "internalType": "address",
          "name": "newOwner",
          "type": "address"
        }
      ],
      "name": "transferOwnership",
      "outputs": [],
      "stateMutability": "nonpayable",
      "type": "function"
    }
  ],
  "bytecode": "0x6080604052348015600f57600080fd5b5061324e8061001f6000396000f3fe60806040526004361061014b5760003560e01c806370a08231116100b6578063b88d4fde1161006f578063b88d4fde14610480578063c87b56dd146104a9578063d9eb1ca3146104e6578063e838e23914610511578063e985e9c51461054e578063f2fde38b1461058b5761014b565b806370a0823114610396578063715018a6146103d35780638129fc1c146103ea5780638da5cb5b1461040157806395d89b411461042c578063a22cb465146104575761014b565b806323b872dd1161010857806323b872dd14610270578063265aa6211461029957806342842e0e146102d757806351ed8288146103005780635afa3a721461031c5780636352211e146103595761014b565b806301ffc9a71461015057806306fdde031461018d578063081812fc146101b8578063095ea7b3146101f557806310d9db261461021e57806317fcfe2214610247575b600080fd5b34801561015c57600080fd5b5061017760048036038101906101729190612341565b6105b4565b6040516101849190612389565b60405180910390f35b34801561019957600080fd5b506101a2610615565b6040516101af9190612434565b60405180910390f35b3480156101c457600080fd5b506101df60048036038101906101da919061248c565b6106b6565b6040516101ec91906124fa565b60405180910390f35b34801561020157600080fd5b5061021c60048036038101906102179190612541565b6106d2565b005b34801561022a57600080fd5b50610245600480360381019061024091906126b6565b6106e8565b005b34801561025357600080fd5b5061026e600480360381019061026991906126ff565b610703565b005b34801561027c57600080fd5b506102976004803603810190610292919061273f565b6107c7565b005b3480156102a557600080fd5b506102c060048036038101906102bb919061248c565b6108c9565b6040516102ce9291906127a1565b60405180910390f35b3480156102e357600080fd5b506102fe60048036038101906102f9919061273f565b6108fa565b005b61031a6004803603810190610315919061248c565b61091a565b005b34801561032857600080fd5b50610343600480360381019061033e91906127ca565b610acd565b6040516103509190612826565b60405180910390f35b34801561036557600080fd5b50610380600480360381019061037b919061248c565b610b7d565b60405161038d91906124fa565b60405180910390f35b3480156103a257600080fd5b506103bd60048036038101906103b89190612841565b610b8f565b6040516103ca9190612826565b60405180910390f35b3480156103df57600080fd5b506103e8610c58565b005b3480156103f657600080fd5b506103ff610c6c565b005b34801561040d57600080fd5b50610416610ea6565b60405161042391906124fa565b60405180910390f35b34801561043857600080fd5b50610441610ede565b60405161044e9190612434565b60405180910390f35b34801561046357600080fd5b5061047e6004803603810190610479919061289a565b610f7f565b005b34801561048c57600080fd5b506104a760048036038101906104a2919061297b565b610f95565b005b3480156104b557600080fd5b506104d060048036038101906104cb919061248c565b610fba565b6040516104dd9190612434565b60405180910390f35b3480156104f257600080fd5b506104fb610ff8565b6040516105089190612434565b60405180910390f35b34801561051d57600080fd5b50610538600480360381019061053391906126b6565b61108a565b6040516105459190612826565b60405180910390f35b34801561055a57600080fd5b50610575600480360381019061057091906129fe565b6110e1565b6040516105829190612389565b60405180910390f35b34801561059757600080fd5b506105b260048036038101906105ad9190612841565b611183565b005b6000634906490660e01b7bffffffffffffffffffffffffffffffffffffffffffffffffffffffff1916827bffffffffffffffffffffffffffffffffffffffffffffffffffffffff1916148061060e575061060d82611209565b5b9050919050565b606060006106216112eb565b905080600001805461063290612a6d565b80601f016020809104026020016040519081016040528092919081815260200182805461065e90612a6d565b80156106ab5780601f10610680576101008083540402835291602001916106ab565b820191906000526020600020905b81548152906001019060200180831161068e57829003601f168201915b505050505091505090565b60006106c182611313565b506106cb8261139b565b9050919050565b6106e482826106df6113e6565b6113ee565b5050565b6106f0611400565b80600090816106ff9190612c4a565b5050565b3373ffffffffffffffffffffffffffffffffffffffff1661072383610b7d565b73ffffffffffffffffffffffffffffffffffffffff1614610779576040517f08c379a000000000000000000000000000000000000000000000000000000000815260040161077090612d68565b60405180910390fd5b80600260008481526020019081526020016000206000018190555060016002600084815260200190815260200160002060010160006101000a81548160ff0219169083151502179055505050565b600073ffffffffffffffffffffffffffffffffffffffff168273ffffffffffffffffffffffffffffffffffffffff16036108395760006040517f64a0ae9200000000000000000000000000000000000000000000000000000000815260040161083091906124fa565b60405180910390fd5b600061084d83836108486113e6565b611487565b90508373ffffffffffffffffffffffffffffffffffffffff168173ffffffffffffffffffffffffffffffffffffffff16146108c3578382826040517f64283d7b0000000000000000000000000000000000000000000000000000000081526004016108ba93929190612d88565b60405180910390fd5b50505050565b60026020528060005260406000206000915090508060000154908060010160009054906101000a900460ff16905082565b61091583838360405180602001604052806000815250610f95565b505050565b6002600082815260200190815260200160002060010160009054906101000a900460ff1661097d576040517f08c379a000000000000000000000000000000000000000000000000000000000815260040161097490612e0b565b60405180910390fd5b600260008281526020019081526020016000206000015434146109d5576040517f08c379a00000000000000000000000000000000000000000000000000000000081526004016109cc90612e77565b60405180910390fd5b60006109e082610b7d565b905060006002600084815260200190815260200160002060010160006101000a81548160ff021916908315150217905550610a1c8133846116b4565b60008173ffffffffffffffffffffffffffffffffffffffff1634604051610a4290612ec8565b60006040518083038185875af1925050503d8060008114610a7f576040519150601f19603f3d011682016040523d82523d6000602084013e610a84565b606091505b5050905080610ac8576040517f08c379a0000000000000000000000000000000000000000000000000000000008152600401610abf90612f29565b60405180910390fd5b505050565b6000610ad7611400565b6000600160008154610ae890612f78565b9190508190559050610afa3382611821565b83600360008381526020019081526020016000209081610b1a9190612c4a565b50604051806040016040528084815260200160011515815250600260008381526020019081526020016000206000820151816000015560208201518160010160006101000a81548160ff0219169083151502179055509050508091505092915050565b6000610b8882611313565b9050919050565b600080610b9a6112eb565b9050600073ffffffffffffffffffffffffffffffffffffffff168373ffffffffffffffffffffffffffffffffffffffff1603610c0e5760006040517f89c62b64000000000000000000000000000000000000000000000000000000008152600401610c0591906124fa565b60405180910390fd5b8060030160008473ffffffffffffffffffffffffffffffffffffffff1673ffffffffffffffffffffffffffffffffffffffff16815260200190815260200160002054915050919050565b610c60611400565b610c6a600061191a565b565b6000610c766119f1565b905060008160000160089054906101000a900460ff1615905060008260000160009054906101000a900467ffffffffffffffff1690506000808267ffffffffffffffff16148015610cc45750825b9050600060018367ffffffffffffffff16148015610cf9575060003073ffffffffffffffffffffffffffffffffffffffff163b145b905081158015610d07575080155b15610d3e576040517ff92ee8a900000000000000000000000000000000000000000000000000000000815260040160405180910390fd5b60018560000160006101000a81548167ffffffffffffffff021916908367ffffffffffffffff1602179055508315610d8e5760018560000160086101000a81548160ff0219169083151502179055505b610d96611a19565b610e0a6040518060400160405280600b81526020017f4d722e20415254424942490000000000000000000000000000000000000000008152506040518060400160405280600481526020017f4249424900000000000000000000000000000000000000000000000000000000815250611a23565b610e1333611a39565b6040518060600160405280603081526020016131e96030913960009081610e3a9190612c4a565b5060006001819055508315610e9f5760008560000160086101000a81548160ff0219169083151502179055507fc7f505b2f371ae2175ee4913f4499e1f2633a7b5936321eed1cdaeb6115181d26001604051610e96919061300f565b60405180910390a15b5050505050565b600080610eb1611a4d565b90508060000160009054906101000a900473ffffffffffffffffffffffffffffffffffffffff1691505090565b60606000610eea6112eb565b9050806001018054610efb90612a6d565b80601f0160208091040260200160405190810160405280929190818152602001828054610f2790612a6d565b8015610f745780601f10610f4957610100808354040283529160200191610f74565b820191906000526020600020905b815481529060010190602001808311610f5757829003601f168201915b505050505091505090565b610f91610f8a6113e6565b8383611a75565b5050565b610fa08484846107c7565b610fb4610fab6113e6565b85858585611bf3565b50505050565b6060600060036000848152602001908152602001600020604051602001610fe29291906130b8565b6040516020818303038152906040529050919050565b60606000805461100790612a6d565b80601f016020809104026020016040519081016040528092919081815260200182805461103390612a6d565b80156110805780601f1061105557610100808354040283529160200191611080565b820191906000526020600020905b81548152906001019060200180831161106357829003601f168201915b5050505050905090565b6000611094611400565b60006001600081546110a590612f78565b91905081905590506110b73382611821565b826003600083815260200190815260200160002090816110d79190612c4a565b5080915050919050565b6000806110ec6112eb565b90508060050160008573ffffffffffffffffffffffffffffffffffffffff1673ffffffffffffffffffffffffffffffffffffffff16815260200190815260200160002060008473ffffffffffffffffffffffffffffffffffffffff1673ffffffffffffffffffffffffffffffffffffffff16815260200190815260200160002060009054906101000a900460ff1691505092915050565b61118b611400565b600073ffffffffffffffffffffffffffffffffffffffff168173ffffffffffffffffffffffffffffffffffffffff16036111fd5760006040517f1e4fbdf70000000000000000000000000000000000000000000000000000000081526004016111f491906124fa565b60405180910390fd5b6112068161191a565b50565b60007f80ac58cd000000000000000000000000000000000000000000000000000000007bffffffffffffffffffffffffffffffffffffffffffffffffffffffff1916827bffffffffffffffffffffffffffffffffffffffffffffffffffffffff191614806112d457507f5b5e139f000000000000000000000000000000000000000000000000000000007bffffffffffffffffffffffffffffffffffffffffffffffffffffffff1916827bffffffffffffffffffffffffffffffffffffffffffffffffffffffff1916145b806112e457506112e382611da4565b5b9050919050565b60007f80bb2b638cc20bc4d0a60d66940f3ab4a00c1d7b313497ca82fb0b4ab0079300905090565b60008061131f83611e0e565b9050600073ffffffffffffffffffffffffffffffffffffffff168173ffffffffffffffffffffffffffffffffffffffff160361139257826040517f7e2732890000000000000000000000000000000000000000000000000000000081526004016113899190612826565b60405180910390fd5b80915050919050565b6000806113a66112eb565b905080600401600084815260200190815260200160002060009054906101000a900473ffffffffffffffffffffffffffffffffffffffff16915050919050565b600033905090565b6113fb8383836001611e59565b505050565b6114086113e6565b73ffffffffffffffffffffffffffffffffffffffff16611426610ea6565b73ffffffffffffffffffffffffffffffffffffffff1614611485576114496113e6565b6040517f118cdaa700000000000000000000000000000000000000000000000000000000815260040161147c91906124fa565b60405180910390fd5b565b6000806114926112eb565b9050600061149f85611e0e565b9050600073ffffffffffffffffffffffffffffffffffffffff168473ffffffffffffffffffffffffffffffffffffffff16146114e1576114e081858761202d565b5b600073ffffffffffffffffffffffffffffffffffffffff168173ffffffffffffffffffffffffffffffffffffffff161461157457611523600086600080611e59565b60018260030160008373ffffffffffffffffffffffffffffffffffffffff1673ffffffffffffffffffffffffffffffffffffffff168152602001908152602001600020600082825403925050819055505b600073ffffffffffffffffffffffffffffffffffffffff168673ffffffffffffffffffffffffffffffffffffffff16146115f95760018260030160008873ffffffffffffffffffffffffffffffffffffffff1673ffffffffffffffffffffffffffffffffffffffff168152602001908152602001600020600082825401925050819055505b8582600201600087815260200190815260200160002060006101000a81548173ffffffffffffffffffffffffffffffffffffffff021916908373ffffffffffffffffffffffffffffffffffffffff160217905550848673ffffffffffffffffffffffffffffffffffffffff168273ffffffffffffffffffffffffffffffffffffffff167fddf252ad1be2c89b69c2b068fc378daa952ba7f163c4a11628f55a4df523b3ef60405160405180910390a480925050509392505050565b600073ffffffffffffffffffffffffffffffffffffffff168273ffffffffffffffffffffffffffffffffffffffff16036117265760006040517f64a0ae9200000000000000000000000000000000000000000000000000000000815260040161171d91906124fa565b60405180910390fd5b600061173483836000611487565b9050600073ffffffffffffffffffffffffffffffffffffffff168173ffffffffffffffffffffffffffffffffffffffff16036117a757816040517f7e27328900000000000000000000000000000000000000000000000000000000815260040161179e9190612826565b60405180910390fd5b8373ffffffffffffffffffffffffffffffffffffffff168173ffffffffffffffffffffffffffffffffffffffff161461181b578382826040517f64283d7b00000000000000000000000000000000000000000000000000000000815260040161181293929190612d88565b60405180910390fd5b50505050565b600073ffffffffffffffffffffffffffffffffffffffff168273ffffffffffffffffffffffffffffffffffffffff16036118935760006040517f64a0ae9200000000000000000000000000000000000000000000000000000000815260040161188a91906124fa565b60405180910390fd5b60006118a183836000611487565b9050600073ffffffffffffffffffffffffffffffffffffffff168173ffffffffffffffffffffffffffffffffffffffff16146119155760006040517f73c6ac6e00000000000000000000000000000000000000000000000000000000815260040161190c91906124fa565b60405180910390fd5b505050565b6000611924611a4d565b905060008160000160009054906101000a900473ffffffffffffffffffffffffffffffffffffffff169050828260000160006101000a81548173ffffffffffffffffffffffffffffffffffffffff021916908373ffffffffffffffffffffffffffffffffffffffff1602179055508273ffffffffffffffffffffffffffffffffffffffff168173ffffffffffffffffffffffffffffffffffffffff167f8be0079c531659141344cd1fd0a4f28419497f9722a3daafe3b4186f6b6457e060405160405180910390a3505050565b60007ff0c57e16840df040f15088dc2f81fe391c3923bec73e23a9662efc9c229c6a00905090565b611a216120f1565b565b611a2b6120f1565b611a358282612131565b5050565b611a416120f1565b611a4a8161216e565b50565b60007f9016d09d72d40fdae2fd8ceac6b6234c7706214fd39c1cd1e609a0528c199300905090565b6000611a7f6112eb565b9050600073ffffffffffffffffffffffffffffffffffffffff168373ffffffffffffffffffffffffffffffffffffffff1603611af257826040517f5b08ba18000000000000000000000000000000000000000000000000000000008152600401611ae991906124fa565b60405180910390fd5b818160050160008673ffffffffffffffffffffffffffffffffffffffff1673ffffffffffffffffffffffffffffffffffffffff16815260200190815260200160002060008573ffffffffffffffffffffffffffffffffffffffff1673ffffffffffffffffffffffffffffffffffffffff16815260200190815260200160002060006101000a81548160ff0219169083151502179055508273ffffffffffffffffffffffffffffffffffffffff168473ffffffffffffffffffffffffffffffffffffffff167f17307eab39ab6107e8899845ad3d59bd9653f200f220920489ca2b5937696c3184604051611be59190612389565b60405180910390a350505050565b60008373ffffffffffffffffffffffffffffffffffffffff163b1115611d9d578273ffffffffffffffffffffffffffffffffffffffff1663150b7a02868685856040518563ffffffff1660e01b8152600401611c529493929190613131565b6020604051808303816000875af1925050508015611c8e57506040513d601f19601f82011682018060405250810190611c8b9190613192565b60015b611d12573d8060008114611cbe576040519150601f19603f3d011682016040523d82523d6000602084013e611cc3565b606091505b506000815103611d0a57836040517f64a0ae92000000000000000000000000000000000000000000000000000000008152600401611d0191906124fa565b60405180910390fd5b805181602001fd5b63150b7a0260e01b7bffffffffffffffffffffffffffffffffffffffffffffffffffffffff1916817bffffffffffffffffffffffffffffffffffffffffffffffffffffffff191614611d9b57836040517f64a0ae92000000000000000000000000000000000000000000000000000000008152600401611d9291906124fa565b60405180910390fd5b505b5050505050565b60007f01ffc9a7000000000000000000000000000000000000000000000000000000007bffffffffffffffffffffffffffffffffffffffffffffffffffffffff1916827bffffffffffffffffffffffffffffffffffffffffffffffffffffffff1916149050919050565b600080611e196112eb565b905080600201600084815260200190815260200160002060009054906101000a900473ffffffffffffffffffffffffffffffffffffffff16915050919050565b6000611e636112eb565b90508180611e9e5750600073ffffffffffffffffffffffffffffffffffffffff168373ffffffffffffffffffffffffffffffffffffffff1614155b15611fd2576000611eae85611313565b9050600073ffffffffffffffffffffffffffffffffffffffff168473ffffffffffffffffffffffffffffffffffffffff1614158015611f1957508373ffffffffffffffffffffffffffffffffffffffff168173ffffffffffffffffffffffffffffffffffffffff1614155b8015611f2c5750611f2a81856110e1565b155b15611f6e57836040517fa9fbf51f000000000000000000000000000000000000000000000000000000008152600401611f6591906124fa565b60405180910390fd5b8215611fd057848673ffffffffffffffffffffffffffffffffffffffff168273ffffffffffffffffffffffffffffffffffffffff167f8c5be1e5ebec7d5bd14f71427d1e84f3dd0314c0f7b2291e5b200ac8c7c3b92560405160405180910390a45b505b8481600401600086815260200190815260200160002060006101000a81548173ffffffffffffffffffffffffffffffffffffffff021916908373ffffffffffffffffffffffffffffffffffffffff1602179055505050505050565b6120388383836121f4565b6120ec57600073ffffffffffffffffffffffffffffffffffffffff168373ffffffffffffffffffffffffffffffffffffffff16036120ad57806040517f7e2732890000000000000000000000000000000000000000000000000000000081526004016120a49190612826565b60405180910390fd5b81816040517f177e802f0000000000000000000000000000000000000000000000000000000081526004016120e39291906131bf565b60405180910390fd5b505050565b6120f96122b5565b61212f576040517fd7e6bcf800000000000000000000000000000000000000000000000000000000815260040160405180910390fd5b565b6121396120f1565b60006121436112eb565b9050828160000190816121569190612c4a565b50818160010190816121689190612c4a565b50505050565b6121766120f1565b600073ffffffffffffffffffffffffffffffffffffffff168173ffffffffffffffffffffffffffffffffffffffff16036121e85760006040517f1e4fbdf70000000000000000000000000000000000000000000000000000000081526004016121df91906124fa565b60405180910390fd5b6121f18161191a565b50565b60008073ffffffffffffffffffffffffffffffffffffffff168373ffffffffffffffffffffffffffffffffffffffff16141580156122ac57508273ffffffffffffffffffffffffffffffffffffffff168473ffffffffffffffffffffffffffffffffffffffff16148061226d575061226c84846110e1565b5b806122ab57508273ffffffffffffffffffffffffffffffffffffffff166122938361139b565b73ffffffffffffffffffffffffffffffffffffffff16145b5b90509392505050565b60006122bf6119f1565b60000160089054906101000a900460ff16905090565b6000604051905090565b600080fd5b600080fd5b60007fffffffff0000000000000000000000000000000000000000000000000000000082169050919050565b61231e816122e9565b811461232957600080fd5b50565b60008135905061233b81612315565b92915050565b600060208284031215612357576123566122df565b5b60006123658482850161232c565b91505092915050565b60008115159050919050565b6123838161236e565b82525050565b600060208201905061239e600083018461237a565b92915050565b600081519050919050565b600082825260208201905092915050565b60005b838110156123de5780820151818401526020810190506123c3565b60008484015250505050565b6000601f19601f8301169050919050565b6000612406826123a4565b61241081856123af565b93506124208185602086016123c0565b612429816123ea565b840191505092915050565b6000602082019050818103600083015261244e81846123fb565b905092915050565b6000819050919050565b61246981612456565b811461247457600080fd5b50565b60008135905061248681612460565b92915050565b6000602082840312156124a2576124a16122df565b5b60006124b084828501612477565b91505092915050565b600073ffffffffffffffffffffffffffffffffffffffff82169050919050565b60006124e4826124b9565b9050919050565b6124f4816124d9565b82525050565b600060208201905061250f60008301846124eb565b92915050565b61251e816124d9565b811461252957600080fd5b50565b60008135905061253b81612515565b92915050565b60008060408385031215612558576125576122df565b5b60006125668582860161252c565b925050602061257785828601612477565b9150509250929050565b600080fd5b600080fd5b7f4e487b7100000000000000000000000000000000000000000000000000000000600052604160045260246000fd5b6125c3826123ea565b810181811067ffffffffffffffff821117156125e2576125e161258b565b5b80604052505050565b60006125f56122d5565b905061260182826125ba565b919050565b600067ffffffffffffffff8211156126215761262061258b565b5b61262a826123ea565b9050602081019050919050565b82818337600083830152505050565b600061265961265484612606565b6125eb565b90508281526020810184848401111561267557612674612586565b5b612680848285612637565b509392505050565b600082601f83011261269d5761269c612581565b5b81356126ad848260208601612646565b91505092915050565b6000602082840312156126cc576126cb6122df565b5b600082013567ffffffffffffffff8111156126ea576126e96122e4565b5b6126f684828501612688565b91505092915050565b60008060408385031215612716576127156122df565b5b600061272485828601612477565b925050602061273585828601612477565b9150509250929050565b600080600060608486031215612758576127576122df565b5b60006127668682870161252c565b93505060206127778682870161252c565b925050604061278886828701612477565b9150509250925092565b61279b81612456565b82525050565b60006040820190506127b66000830185612792565b6127c3602083018461237a565b9392505050565b600080604083850312156127e1576127e06122df565b5b600083013567ffffffffffffffff8111156127ff576127fe6122e4565b5b61280b85828601612688565b925050602061281c85828601612477565b9150509250929050565b600060208201905061283b6000830184612792565b92915050565b600060208284031215612857576128566122df565b5b60006128658482850161252c565b91505092915050565b6128778161236e565b811461288257600080fd5b50565b6000813590506128948161286e565b92915050565b600080604083850312156128b1576128b06122df565b5b60006128bf8582860161252c565b92505060206128d085828601612885565b9150509250929050565b600067ffffffffffffffff8211156128f5576128f461258b565b5b6128fe826123ea565b9050602081019050919050565b600061291e612919846128da565b6125eb565b90508281526020810184848401111561293a57612939612586565b5b612945848285612637565b509392505050565b600082601f83011261296257612961612581565b5b813561297284826020860161290b565b91505092915050565b60008060008060808587031215612995576129946122df565b5b60006129a38782880161252c565b94505060206129b48782880161252c565b93505060406129c587828801612477565b925050606085013567ffffffffffffffff8111156129e6576129e56122e4565b5b6129f28782880161294d565b91505092959194509250565b60008060408385031215612a1557612a146122df565b5b6000612a238582860161252c565b9250506020612a348582860161252c565b9150509250929050565b7f4e487b7100000000000000000000000000000000000000000000000000000000600052602260045260246000fd5b60006002820490506001821680612a8557607f821691505b602082108103612a9857612a97612a3e565b5b50919050565b60008190508160005260206000209050919050565b60006020601f8301049050919050565b600082821b905092915050565b600060088302612b007fffffffffffffffffffffffffffffffffffffffffffffffffffffffffffffffff82612ac3565b612b0a8683612ac3565b95508019841693508086168417925050509392505050565b6000819050919050565b6000612b47612b42612b3d84612456565b612b22565b612456565b9050919050565b6000819050919050565b612b6183612b2c565b612b75612b6d82612b4e565b848454612ad0565b825550505050565b600090565b612b8a612b7d565b612b95818484612b58565b505050565b5b81811015612bb957612bae600082612b82565b600181019050612b9b565b5050565b601f821115612bfe57612bcf81612a9e565b612bd884612ab3565b81016020851015612be7578190505b612bfb612bf385612ab3565b830182612b9a565b50505b505050565b600082821c905092915050565b6000612c2160001984600802612c03565b1980831691505092915050565b6000612c3a8383612c10565b9150826002028217905092915050565b612c53826123a4565b67ffffffffffffffff811115612c6c57612c6b61258b565b5b612c768254612a6d565b612c81828285612bbd565b600060209050601f831160018114612cb45760008415612ca2578287015190505b612cac8582612c2e565b865550612d14565b601f198416612cc286612a9e565b60005b82811015612cea57848901518255600182019150602085019450602081019050612cc5565b86831015612d075784890151612d03601f891682612c10565b8355505b6001600288020188555050505b505050505050565b7f596f7520617265206e6f7420746865206f776e65720000000000000000000000600082015250565b6000612d526015836123af565b9150612d5d82612d1c565b602082019050919050565b60006020820190508181036000830152612d8181612d45565b9050919050565b6000606082019050612d9d60008301866124eb565b612daa6020830185612792565b612db760408301846124eb565b949350505050565b7f4e4654206973206e6f7420666f722073616c6500000000000000000000000000600082015250565b6000612df56013836123af565b9150612e0082612dbf565b602082019050919050565b60006020820190508181036000830152612e2481612de8565b9050919050565b7f496e636f72726563742070726963650000000000000000000000000000000000600082015250565b6000612e61600f836123af565b9150612e6c82612e2b565b602082019050919050565b60006020820190508181036000830152612e9081612e54565b9050919050565b600081905092915050565b50565b6000612eb2600083612e97565b9150612ebd82612ea2565b600082019050919050565b6000612ed382612ea5565b9150819050919050565b7f4661696c656420746f2073656e64204574686572000000000000000000000000600082015250565b6000612f136014836123af565b9150612f1e82612edd565b602082019050919050565b60006020820190508181036000830152612f4281612f06565b9050919050565b7f4e487b7100000000000000000000000000000000000000000000000000000000600052601160045260246000fd5b6000612f8382612456565b91507fffffffffffffffffffffffffffffffffffffffffffffffffffffffffffffffff8203612fb557612fb4612f49565b5b600182019050919050565b6000819050919050565b600067ffffffffffffffff82169050919050565b6000612ff9612ff4612fef84612fc0565b612b22565b612fca565b9050919050565b61300981612fde565b82525050565b60006020820190506130246000830184613000565b92915050565b600081905092915050565b6000815461304281612a6d565b61304c818661302a565b94506001821660008114613067576001811461307c576130af565b60ff19831686528115158202860193506130af565b61308585612a9e565b60005b838110156130a757815481890152600182019150602081019050613088565b838801955050505b50505092915050565b60006130c48285613035565b91506130d08284613035565b91508190509392505050565b600081519050919050565b600082825260208201905092915050565b6000613103826130dc565b61310d81856130e7565b935061311d8185602086016123c0565b613126816123ea565b840191505092915050565b600060808201905061314660008301876124eb565b61315360208301866124eb565b6131606040830185612792565b818103606083015261317281846130f8565b905095945050505050565b60008151905061318c81612315565b92915050565b6000602082840312156131a8576131a76122df565b5b60006131b68482850161317d565b91505092915050565b60006040820190506131d460008301856124eb565b6131e16020830184612792565b939250505056fe68747470733a2f2f7465616c2d746f74616c2d706f6e792d3137342e6d7970696e6174612e636c6f75642f697066732fa2646970667358221220f453051b4a437906db2a4285c3ef7b2626c2636ca24ad8dcd71efe338706a05764736f6c634300081c0033",
  "linkReferences": {},
  "deployedLinkReferences": {}
}