{
  "_format": "hh-sol-artifact-1",
  "contractName": "SocialMediaVerification",
  "sourceName": "contracts/SocialMedia/SocialMediaVerification.sol",
  "abi": [
    {
      "inputs": [],
      "name": "ECDSAInvalidSignature",
      "type": "error"
    },
    {
      "inputs": [
        {
          "internalType": "uint256",
          "name": "length",
          "type": "uint256"
        }
      ],
      "name": "ECDSAInvalidSignatureLength",
      "type": "error"
    },
    {
      "inputs": [
        {
          "internalType": "bytes32",
          "name": "s",
          "type": "bytes32"
        }
      ],
      "name": "ECDSAInvalidSignatureS",
      "type": "error"
    },
    {
      "inputs": [],
      "name": "InvalidInitialization",
      "type": "error"
    },
    {
      "inputs": [],
      "name": "NotInitializing",
      "type": "error"
    },
    {
      "inputs": [
        {
          "internalType": "address",
          "name": "owner",
          "type": "address"
        }
      ],
      "name": "OwnableInvalidOwner",
      "type": "error"
    },
    {
      "inputs": [
        {
          "internalType": "address",
          "name": "account",
          "type": "address"
        }
      ],
      "name": "OwnableUnauthorizedAccount",
      "type": "error"
    },
    {
      "anonymous": false,
      "inputs": [
        {
          "indexed": false,
          "internalType": "uint64",
          "name": "version",
          "type": "uint64"
        }
      ],
      "name": "Initialized",
      "type": "event"
    },
    {
      "anonymous": false,
      "inputs": [
        {
          "indexed": true,
          "internalType": "address",
          "name": "previousOwner",
          "type": "address"
        },
        {
          "indexed": true,
          "internalType": "address",
          "name": "newOwner",
          "type": "address"
        }
      ],
      "name": "OwnershipTransferred",
      "type": "event"
    },
    {
      "anonymous": false,
      "inputs": [
        {
          "indexed": true,
          "internalType": "address",
          "name": "author",
          "type": "address"
        },
        {
          "indexed": true,
          "internalType": "bytes32",
          "name": "postHash",
          "type": "bytes32"
        },
        {
          "indexed": false,
          "internalType": "string",
          "name": "postUrl",
          "type": "string"
        },
        {
          "indexed": false,
          "internalType": "uint256",
          "name": "timestamp",
          "type": "uint256"
        },
        {
          "indexed": false,
          "internalType": "string",
          "name": "platform",
          "type": "string"
        }
      ],
      "name": "PostRegistered",
      "type": "event"
    },
    {
      "anonymous": false,
      "inputs": [
        {
          "indexed": true,
          "internalType": "address",
          "name": "user",
          "type": "address"
        },
        {
          "indexed": false,
          "internalType": "string",
          "name": "username",
          "type": "string"
        },
        {
          "indexed": false,
          "internalType": "string",
          "name": "platform",
          "type": "string"
        }
      ],
      "name": "SocialAccountRegistered",
      "type": "event"
    },
    {
      "anonymous": false,
      "inputs": [
        {
          "indexed": true,
          "internalType": "bytes32",
          "name": "requestId",
          "type": "bytes32"
        },
        {
          "indexed": true,
          "internalType": "address",
          "name": "user",
          "type": "address"
        },
        {
          "indexed": false,
          "internalType": "string",
          "name": "username",
          "type": "string"
        },
        {
          "indexed": false,
          "internalType": "string",
          "name": "platform",
          "type": "string"
        }
      ],
      "name": "VerificationInitiated",
      "type": "event"
    },
    {
      "inputs": [
        {
          "internalType": "bytes32",
          "name": "requestId",
          "type": "bytes32"
        },
        {
          "internalType": "string",
          "name": "username",
          "type": "string"
        },
        {
          "internalType": "string",
          "name": "platform",
          "type": "string"
        },
        {
          "internalType": "bytes",
          "name": "signature",
          "type": "bytes"
        }
      ],
      "name": "confirmVerification",
      "outputs": [],
      "stateMutability": "nonpayable",
      "type": "function"
    },
    {
      "inputs": [
        {
          "internalType": "address",
          "name": "user",
          "type": "address"
        }
      ],
      "name": "getUserPosts",
      "outputs": [
        {
          "components": [
            {
              "internalType": "address",
              "name": "author",
              "type": "address"
            },
            {
              "internalType": "string",
              "name": "postUrl",
              "type": "string"
            },
            {
              "internalType": "uint256",
              "name": "timestamp",
              "type": "uint256"
            },
            {
              "internalType": "string",
              "name": "platform",
              "type": "string"
            }
          ],
          "internalType": "struct SocialMediaVerification.Post[]",
          "name": "userPosts",
          "type": "tuple[]"
        }
      ],
      "stateMutability": "view",
      "type": "function"
    },
    {
      "inputs": [
        {
          "internalType": "address",
          "name": "user",
          "type": "address"
        }
      ],
      "name": "getUserSocialAccounts",
      "outputs": [
        {
          "components": [
            {
              "internalType": "string",
              "name": "username",
              "type": "string"
            },
            {
              "internalType": "string",
              "name": "platform",
              "type": "string"
            },
            {
              "internalType": "bool",
              "name": "isVerified",
              "type": "bool"
            }
          ],
          "internalType": "struct SocialMediaVerification.SocialAccount[]",
          "name": "",
          "type": "tuple[]"
        }
      ],
      "stateMutability": "view",
      "type": "function"
    },
    {
      "inputs": [],
      "name": "initialize",
      "outputs": [],
      "stateMutability": "nonpayable",
      "type": "function"
    },
    {
      "inputs": [
        {
          "internalType": "string",
          "name": "username",
          "type": "string"
        },
        {
          "internalType": "string",
          "name": "platform",
          "type": "string"
        }
      ],
      "name": "initiateVerification",
      "outputs": [],
      "stateMutability": "nonpayable",
      "type": "function"
    },
    {
      "inputs": [],
      "name": "owner",
      "outputs": [
        {
          "internalType": "address",
          "name": "",
          "type": "address"
        }
      ],
      "stateMutability": "view",
      "type": "function"
    },
    {
      "inputs": [
        {
          "internalType": "uint256",
          "name": "",
          "type": "uint256"
        }
      ],
      "name": "posts",
      "outputs": [
        {
          "internalType": "address",
          "name": "author",
          "type": "address"
        },
        {
          "internalType": "string",
          "name": "postUrl",
          "type": "string"
        },
        {
          "internalType": "uint256",
          "name": "timestamp",
          "type": "uint256"
        },
        {
          "internalType": "string",
          "name": "platform",
          "type": "string"
        }
      ],
      "stateMutability": "view",
      "type": "function"
    },
    {
      "inputs": [
        {
          "internalType": "string",
          "name": "postUrl",
          "type": "string"
        },
        {
          "internalType": "string",
          "name": "platform",
          "type": "string"
        }
      ],
      "name": "registerPost",
      "outputs": [
        {
          "internalType": "bytes32",
          "name": "postHash",
          "type": "bytes32"
        }
      ],
      "stateMutability": "nonpayable",
      "type": "function"
    },
    {
      "inputs": [],
      "name": "renounceOwnership",
      "outputs": [],
      "stateMutability": "nonpayable",
      "type": "function"
    },
    {
      "inputs": [
        {
          "internalType": "address",
          "name": "_verifier",
          "type": "address"
        }
      ],
      "name": "setVerifier",
      "outputs": [],
      "stateMutability": "nonpayable",
      "type": "function"
    },
    {
      "inputs": [
        {
          "internalType": "address",
          "name": "newOwner",
          "type": "address"
        }
      ],
      "name": "transferOwnership",
      "outputs": [],
      "stateMutability": "nonpayable",
      "type": "function"
    },
    {
      "inputs": [
        {
          "internalType": "address",
          "name": "",
          "type": "address"
        },
        {
          "internalType": "uint256",
          "name": "",
          "type": "uint256"
        }
      ],
      "name": "userAccounts",
      "outputs": [
        {
          "internalType": "string",
          "name": "username",
          "type": "string"
        },
        {
          "internalType": "string",
          "name": "platform",
          "type": "string"
        },
        {
          "internalType": "bool",
          "name": "isVerified",
          "type": "bool"
        }
      ],
      "stateMutability": "view",
      "type": "function"
    },
    {
      "inputs": [
        {
          "internalType": "bytes32",
          "name": "",
          "type": "bytes32"
        }
      ],
      "name": "verificationRequests",
      "outputs": [
        {
          "internalType": "address",
          "name": "user",
          "type": "address"
        },
        {
          "internalType": "string",
          "name": "username",
          "type": "string"
        },
        {
          "internalType": "string",
          "name": "platform",
          "type": "string"
        },
        {
          "internalType": "uint256",
          "name": "timestamp",
          "type": "uint256"
        },
        {
          "internalType": "bool",
          "name": "isVerified",
          "type": "bool"
        }
      ],
      "stateMutability": "view",
      "type": "function"
    },
    {
      "inputs": [],
      "name": "verifier",
      "outputs": [
        {
          "internalType": "address",
          "name": "",
          "type": "address"
        }
      ],
      "stateMutability": "view",
      "type": "function"
    },
    {
      "inputs": [
        {
          "internalType": "bytes32",
          "name": "postHash",
          "type": "bytes32"
        }
      ],
      "name": "verifyPost",
      "outputs": [
        {
          "components": [
            {
              "internalType": "bool",
              "name": "exists",
              "type": "bool"
            },
            {
              "internalType": "address",
              "name": "author",
              "type": "address"
            },
            {
              "internalType": "string",
              "name": "platform",
              "type": "string"
            },
            {
              "internalType": "uint256",
              "name": "timestamp",
              "type": "uint256"
            },
            {
              "internalType": "string",
              "name": "authorUsername",
              "type": "string"
            },
            {
              "internalType": "string",
              "name": "postUrl",
              "type": "string"
            }
          ],
          "internalType": "struct SocialMediaVerification.PostVerificationInfo",
          "name": "info",
          "type": "tuple"
        }
      ],
      "stateMutability": "view",
      "type": "function"
    }
  ],
  "bytecode": "0x6080604052348015600f57600080fd5b506139c18061001f6000396000f3fe608060405234801561001057600080fd5b50600436106100f55760003560e01c806375a47b5b116100975780639a2194a9116100665780639a2194a91461027b578063a5fc07bf146102ab578063b39ad0a2146102db578063f2fde38b146102f7576100f5565b806375a47b5b146101f15780638129fc1c1461022157806383532d681461022b5780638da5cb5b1461025d576100f5565b80635437988d116100d35780635437988d1461017f57806360dea97c1461019b57806366a9b9bf146101b7578063715018a6146101e7576100f5565b80630b1e7f83146100fa5780630f3908c81461012d5780632b7ac3f314610161575b600080fd5b610114600480360381019061010f9190612489565b610313565b6040516101249493929190612596565b60405180910390f35b6101476004803603810190610142919061261f565b610483565b604051610158959493929190612667565b60405180910390f35b6101696105f6565b60405161017691906126c8565b60405180910390f35b6101996004803603810190610194919061270f565b61061a565b005b6101b560048036038101906101b091906127a1565b610665565b005b6101d160048036038101906101cc919061270f565b610871565b6040516101de9190612994565b60405180910390f35b6101ef610a4e565b005b61020b6004803603810190610206919061261f565b610a62565b6040516102189190612a6b565b60405180910390f35b610229610e5d565b005b61024560048036038101906102409190612a8d565b610ff3565b60405161025493929190612acd565b60405180910390f35b610265611157565b60405161027291906126c8565b60405180910390f35b6102956004803603810190610290919061270f565b61118f565b6040516102a29190612c3e565b60405180910390f35b6102c560048036038101906102c091906127a1565b611509565b6040516102d29190612c6f565b60405180910390f35b6102f560048036038101906102f09190612ce0565b6118a9565b005b610311600480360381019061030c919061270f565b611b5b565b005b6003818154811061032357600080fd5b90600052602060002090600402016000915090508060000160009054906101000a900473ffffffffffffffffffffffffffffffffffffffff169080600101805461036c90612dd8565b80601f016020809104026020016040519081016040528092919081815260200182805461039890612dd8565b80156103e55780601f106103ba576101008083540402835291602001916103e5565b820191906000526020600020905b8154815290600101906020018083116103c857829003601f168201915b50505050509080600201549080600301805461040090612dd8565b80601f016020809104026020016040519081016040528092919081815260200182805461042c90612dd8565b80156104795780601f1061044e57610100808354040283529160200191610479565b820191906000526020600020905b81548152906001019060200180831161045c57829003601f168201915b5050505050905084565b60046020528060005260406000206000915090508060000160009054906101000a900473ffffffffffffffffffffffffffffffffffffffff16908060010180546104cc90612dd8565b80601f01602080910402602001604051908101604052809291908181526020018280546104f890612dd8565b80156105455780601f1061051a57610100808354040283529160200191610545565b820191906000526020600020905b81548152906001019060200180831161052857829003601f168201915b50505050509080600201805461055a90612dd8565b80601f016020809104026020016040519081016040528092919081815260200182805461058690612dd8565b80156105d35780601f106105a8576101008083540402835291602001916105d3565b820191906000526020600020905b8154815290600101906020018083116105b657829003601f168201915b5050505050908060030154908060040160009054906101000a900460ff16905085565b60008054906101000a900473ffffffffffffffffffffffffffffffffffffffff1681565b610622611be1565b806000806101000a81548173ffffffffffffffffffffffffffffffffffffffff021916908373ffffffffffffffffffffffffffffffffffffffff16021790555050565b600033858585854260405160200161068296959493929190612eb1565b6040516020818303038152906040528051906020012090506040518060a001604052803373ffffffffffffffffffffffffffffffffffffffff16815260200186868080601f016020809104026020016040519081016040528093929190818152602001838380828437600081840152601f19601f82011690508083019250505050505050815260200184848080601f016020809104026020016040519081016040528093929190818152602001838380828437600081840152601f19601f820116905080830192505050505050508152602001428152602001600015158152506004600083815260200190815260200160002060008201518160000160006101000a81548173ffffffffffffffffffffffffffffffffffffffff021916908373ffffffffffffffffffffffffffffffffffffffff16021790555060208201518160010190816107d191906130d6565b5060408201518160020190816107e791906130d6565b506060820151816003015560808201518160040160006101000a81548160ff0219169083151502179055509050503373ffffffffffffffffffffffffffffffffffffffff16817f8ba6a49d87e922e445e2ab642e5caa7bc7f5bf5dde75e046b78cacdcfc21c8ef8787878760405161086294939291906131d5565b60405180910390a35050505050565b6060600160008373ffffffffffffffffffffffffffffffffffffffff1673ffffffffffffffffffffffffffffffffffffffff168152602001908152602001600020805480602002602001604051908101604052809291908181526020016000905b82821015610a43578382906000526020600020906003020160405180606001604052908160008201805461090590612dd8565b80601f016020809104026020016040519081016040528092919081815260200182805461093190612dd8565b801561097e5780601f106109535761010080835404028352916020019161097e565b820191906000526020600020905b81548152906001019060200180831161096157829003601f168201915b5050505050815260200160018201805461099790612dd8565b80601f01602080910402602001604051908101604052809291908181526020018280546109c390612dd8565b8015610a105780601f106109e557610100808354040283529160200191610a10565b820191906000526020600020905b8154815290600101906020018083116109f357829003601f168201915b505050505081526020016002820160009054906101000a900460ff161515151581525050815260200190600101906108d2565b505050509050919050565b610a56611be1565b610a606000611c68565b565b610a6a6123bd565b600081600001901515908115158152505060005b600380549050811015610e5757600060038281548110610aa157610aa0613210565b5b9060005260206000209060040201600101604051602001610ac291906132c2565b604051602081830303815290604052805190602001209050838103610e4957600060038381548110610af757610af6613210565b5b9060005260206000209060040201905060018460000190151590811515815250508060000160009054906101000a900473ffffffffffffffffffffffffffffffffffffffff16846020019073ffffffffffffffffffffffffffffffffffffffff16908173ffffffffffffffffffffffffffffffffffffffff1681525050806003018054610b8390612dd8565b80601f0160208091040260200160405190810160405280929190818152602001828054610baf90612dd8565b8015610bfc5780601f10610bd157610100808354040283529160200191610bfc565b820191906000526020600020905b815481529060010190602001808311610bdf57829003601f168201915b505050505084604001819052508060020154846060018181525050806001018054610c2690612dd8565b80601f0160208091040260200160405190810160405280929190818152602001828054610c5290612dd8565b8015610c9f5780601f10610c7457610100808354040283529160200191610c9f565b820191906000526020600020905b815481529060010190602001808311610c8257829003601f168201915b50505050508460a001819052506000600160008360000160009054906101000a900473ffffffffffffffffffffffffffffffffffffffff1673ffffffffffffffffffffffffffffffffffffffff1673ffffffffffffffffffffffffffffffffffffffff168152602001908152602001600020905060005b8180549050811015610e405782600301604051610d33919061337c565b6040518091039020828281548110610d4e57610d4d613210565b5b9060005260206000209060030201600101604051610d6c919061337c565b604051809103902003610e3357818181548110610d8c57610d8b613210565b5b90600052602060002090600302016000018054610da890612dd8565b80601f0160208091040260200160405190810160405280929190818152602001828054610dd490612dd8565b8015610e215780601f10610df657610100808354040283529160200191610e21565b820191906000526020600020905b815481529060010190602001808311610e0457829003601f168201915b50505050508660800181905250610e40565b8080600101915050610d16565b50505050610e57565b508080600101915050610a7e565b50919050565b6000610e67611d3f565b905060008160000160089054906101000a900460ff1615905060008260000160009054906101000a900467ffffffffffffffff1690506000808267ffffffffffffffff16148015610eb55750825b9050600060018367ffffffffffffffff16148015610eea575060003073ffffffffffffffffffffffffffffffffffffffff163b145b905081158015610ef8575080155b15610f2f576040517ff92ee8a900000000000000000000000000000000000000000000000000000000815260040160405180910390fd5b60018560000160006101000a81548167ffffffffffffffff021916908367ffffffffffffffff1602179055508315610f7f5760018560000160086101000a81548160ff0219169083151502179055505b610f87611d67565b610f9033611da7565b8315610fec5760008560000160086101000a81548160ff0219169083151502179055507fc7f505b2f371ae2175ee4913f4499e1f2633a7b5936321eed1cdaeb6115181d26001604051610fe391906133e2565b60405180910390a15b5050505050565b6001602052816000526040600020818154811061100f57600080fd5b90600052602060002090600302016000915091505080600001805461103390612dd8565b80601f016020809104026020016040519081016040528092919081815260200182805461105f90612dd8565b80156110ac5780601f10611081576101008083540402835291602001916110ac565b820191906000526020600020905b81548152906001019060200180831161108f57829003601f168201915b5050505050908060010180546110c190612dd8565b80601f01602080910402602001604051908101604052809291908181526020018280546110ed90612dd8565b801561113a5780601f1061110f5761010080835404028352916020019161113a565b820191906000526020600020905b81548152906001019060200180831161111d57829003601f168201915b5050505050908060020160009054906101000a900460ff16905083565b600080611162611dbb565b90508060000160009054906101000a900473ffffffffffffffffffffffffffffffffffffffff1691505090565b60606000805b600380549050811015611236578373ffffffffffffffffffffffffffffffffffffffff16600382815481106111cd576111cc613210565b5b906000526020600020906004020160000160009054906101000a900473ffffffffffffffffffffffffffffffffffffffff1673ffffffffffffffffffffffffffffffffffffffff16036112295781806112259061342c565b9250505b8080600101915050611195565b508067ffffffffffffffff81111561125157611250612efb565b5b60405190808252806020026020018201604052801561128a57816020015b61127761240b565b81526020019060019003908161126f5790505b5091506000805b600380549050811015611501578473ffffffffffffffffffffffffffffffffffffffff16600382815481106112c9576112c8613210565b5b906000526020600020906004020160000160009054906101000a900473ffffffffffffffffffffffffffffffffffffffff1673ffffffffffffffffffffffffffffffffffffffff16036114f4576003818154811061132a57611329613210565b5b90600052602060002090600402016040518060800160405290816000820160009054906101000a900473ffffffffffffffffffffffffffffffffffffffff1673ffffffffffffffffffffffffffffffffffffffff1673ffffffffffffffffffffffffffffffffffffffff1681526020016001820180546113a990612dd8565b80601f01602080910402602001604051908101604052809291908181526020018280546113d590612dd8565b80156114225780601f106113f757610100808354040283529160200191611422565b820191906000526020600020905b81548152906001019060200180831161140557829003601f168201915b505050505081526020016002820154815260200160038201805461144590612dd8565b80601f016020809104026020016040519081016040528092919081815260200182805461147190612dd8565b80156114be5780601f10611493576101008083540402835291602001916114be565b820191906000526020600020905b8154815290600101906020018083116114a157829003601f168201915b5050505050815250508483815181106114da576114d9613210565b5b602002602001018190525081806114f09061342c565b9250505b8080600101915050611291565b505050919050565b6000600260003373ffffffffffffffffffffffffffffffffffffffff1673ffffffffffffffffffffffffffffffffffffffff168152602001908152602001600020838360405161155a929190613474565b908152602001604051809103902060009054906101000a900460ff166115b5576040517f08c379a00000000000000000000000000000000000000000000000000000000081526004016115ac906134ff565b60405180910390fd5b600085859050116115fb576040517f08c379a00000000000000000000000000000000000000000000000000000000081526004016115f29061356b565b60405180910390fd5b848460405160200161160e929190613474565b6040516020818303038152906040528051906020012090506000805b60038054905081101561169e57826003828154811061164c5761164b613210565b5b906000526020600020906004020160010160405160200161166d91906132c2565b6040516020818303038152906040528051906020012003611691576001915061169e565b808060010191505061162a565b5080156116e0576040517f08c379a00000000000000000000000000000000000000000000000000000000081526004016116d7906135d7565b60405180910390fd5b600360405180608001604052803373ffffffffffffffffffffffffffffffffffffffff16815260200188888080601f016020809104026020016040519081016040528093929190818152602001838380828437600081840152601f19601f82011690508083019250505050505050815260200142815260200186868080601f016020809104026020016040519081016040528093929190818152602001838380828437600081840152601f19601f82011690508083019250505050505050815250908060018154018082558091505060019003906000526020600020906004020160009091909190915060008201518160000160006101000a81548173ffffffffffffffffffffffffffffffffffffffff021916908373ffffffffffffffffffffffffffffffffffffffff160217905550602082015181600101908161182691906130d6565b5060408201518160020155606082015181600301908161184691906130d6565b505050813373ffffffffffffffffffffffffffffffffffffffff167f848c5a01b0201c6623ddbd32934192271068b3da0c7e2bb032b10a312f6b792988884289896040516118989594939291906135f7565b60405180910390a350949350505050565b60008733888888886040516020016118c696959493929190613661565b6040516020818303038152906040528051906020012090506000816040516020016118f191906136f7565b60405160208183030381529060405280519060200120905060006119598286868080601f016020809104026020016040519081016040528093929190818152602001838380828437600081840152601f19601f82011690508083019250505050505050611de3565b905060008054906101000a900473ffffffffffffffffffffffffffffffffffffffff1673ffffffffffffffffffffffffffffffffffffffff168173ffffffffffffffffffffffffffffffffffffffff16146119e9576040517f08c379a00000000000000000000000000000000000000000000000000000000081526004016119e090613769565b60405180910390fd5b3373ffffffffffffffffffffffffffffffffffffffff16600460008c815260200190815260200160002060000160009054906101000a900473ffffffffffffffffffffffffffffffffffffffff1673ffffffffffffffffffffffffffffffffffffffff1614611a8d576040517f08c379a0000000000000000000000000000000000000000000000000000000008152600401611a84906137d5565b60405180910390fd5b6001600460008c815260200190815260200160002060040160006101000a81548160ff021916908315150217905550611b4f338a8a8080601f016020809104026020016040519081016040528093929190818152602001838380828437600081840152601f19601f8201169050808301925050505050505089898080601f016020809104026020016040519081016040528093929190818152602001838380828437600081840152601f19601f82011690508083019250505050505050611e0f565b50505050505050505050565b611b63611be1565b600073ffffffffffffffffffffffffffffffffffffffff168173ffffffffffffffffffffffffffffffffffffffff1603611bd55760006040517f1e4fbdf7000000000000000000000000000000000000000000000000000000008152600401611bcc91906126c8565b60405180910390fd5b611bde81611c68565b50565b611be961205b565b73ffffffffffffffffffffffffffffffffffffffff16611c07611157565b73ffffffffffffffffffffffffffffffffffffffff1614611c6657611c2a61205b565b6040517f118cdaa7000000000000000000000000000000000000000000000000000000008152600401611c5d91906126c8565b60405180910390fd5b565b6000611c72611dbb565b905060008160000160009054906101000a900473ffffffffffffffffffffffffffffffffffffffff169050828260000160006101000a81548173ffffffffffffffffffffffffffffffffffffffff021916908373ffffffffffffffffffffffffffffffffffffffff1602179055508273ffffffffffffffffffffffffffffffffffffffff168173ffffffffffffffffffffffffffffffffffffffff167f8be0079c531659141344cd1fd0a4f28419497f9722a3daafe3b4186f6b6457e060405160405180910390a3505050565b60007ff0c57e16840df040f15088dc2f81fe391c3923bec73e23a9662efc9c229c6a00905090565b611d6f612063565b611da5576040517fd7e6bcf800000000000000000000000000000000000000000000000000000000815260040160405180910390fd5b565b611daf611d67565b611db881612083565b50565b60007f9016d09d72d40fdae2fd8ceac6b6234c7706214fd39c1cd1e609a0528c199300905090565b600080600080611df38686612109565b925092509250611e038282612165565b82935050505092915050565b600260008473ffffffffffffffffffffffffffffffffffffffff1673ffffffffffffffffffffffffffffffffffffffff16815260200190815260200160002081604051611e5c9190613826565b908152602001604051809103902060009054906101000a900460ff1615611eb8576040517f08c379a0000000000000000000000000000000000000000000000000000000008152600401611eaf90613889565b60405180910390fd5b60006040518060600160405280848152602001838152602001600115158152509050600160008573ffffffffffffffffffffffffffffffffffffffff1673ffffffffffffffffffffffffffffffffffffffff1681526020019081526020016000208190806001815401808255809150506001900390600052602060002090600302016000909190919091506000820151816000019081611f5891906130d6565b506020820151816001019081611f6e91906130d6565b5060408201518160020160006101000a81548160ff02191690831515021790555050506001600260008673ffffffffffffffffffffffffffffffffffffffff1673ffffffffffffffffffffffffffffffffffffffff16815260200190815260200160002083604051611fe09190613826565b908152602001604051809103902060006101000a81548160ff0219169083151502179055508373ffffffffffffffffffffffffffffffffffffffff167fd754dba48a113eeef42241f5cc802550bbd501b4e20787770737cb0646f5f0ed848460405161204d9291906138a9565b60405180910390a250505050565b600033905090565b600061206d611d3f565b60000160089054906101000a900460ff16905090565b61208b611d67565b600073ffffffffffffffffffffffffffffffffffffffff168173ffffffffffffffffffffffffffffffffffffffff16036120fd5760006040517f1e4fbdf70000000000000000000000000000000000000000000000000000000081526004016120f491906126c8565b60405180910390fd5b61210681611c68565b50565b6000806000604184510361214e5760008060006020870151925060408701519150606087015160001a9050612140888285856122c9565b95509550955050505061215e565b60006002855160001b9250925092505b9250925092565b60006003811115612179576121786138e0565b5b82600381111561218c5761218b6138e0565b5b03156122c557600160038111156121a6576121a56138e0565b5b8260038111156121b9576121b86138e0565b5b036121f0576040517ff645eedf00000000000000000000000000000000000000000000000000000000815260040160405180910390fd5b60026003811115612204576122036138e0565b5b826003811115612217576122166138e0565b5b0361225c578060001c6040517ffce698f7000000000000000000000000000000000000000000000000000000008152600401612253919061390f565b60405180910390fd5b60038081111561226f5761226e6138e0565b5b826003811115612282576122816138e0565b5b036122c457806040517fd78bce0c0000000000000000000000000000000000000000000000000000000081526004016122bb9190612c6f565b60405180910390fd5b5b5050565b60008060007f7fffffffffffffffffffffffffffffff5d576e7357a4501ddfe92f46681b20a08460001c11156123095760006003859250925092506123b3565b60006001888888886040516000815260200160405260405161232e9493929190613946565b6020604051602081039080840390855afa158015612350573d6000803e3d6000fd5b505050602060405103519050600073ffffffffffffffffffffffffffffffffffffffff168173ffffffffffffffffffffffffffffffffffffffff16036123a457600060016000801b935093509350506123b3565b8060008060001b935093509350505b9450945094915050565b6040518060c00160405280600015158152602001600073ffffffffffffffffffffffffffffffffffffffff168152602001606081526020016000815260200160608152602001606081525090565b6040518060800160405280600073ffffffffffffffffffffffffffffffffffffffff1681526020016060815260200160008152602001606081525090565b600080fd5b600080fd5b6000819050919050565b61246681612453565b811461247157600080fd5b50565b6000813590506124838161245d565b92915050565b60006020828403121561249f5761249e612449565b5b60006124ad84828501612474565b91505092915050565b600073ffffffffffffffffffffffffffffffffffffffff82169050919050565b60006124e1826124b6565b9050919050565b6124f1816124d6565b82525050565b600081519050919050565b600082825260208201905092915050565b60005b83811015612531578082015181840152602081019050612516565b60008484015250505050565b6000601f19601f8301169050919050565b6000612559826124f7565b6125638185612502565b9350612573818560208601612513565b61257c8161253d565b840191505092915050565b61259081612453565b82525050565b60006080820190506125ab60008301876124e8565b81810360208301526125bd818661254e565b90506125cc6040830185612587565b81810360608301526125de818461254e565b905095945050505050565b6000819050919050565b6125fc816125e9565b811461260757600080fd5b50565b600081359050612619816125f3565b92915050565b60006020828403121561263557612634612449565b5b60006126438482850161260a565b91505092915050565b60008115159050919050565b6126618161264c565b82525050565b600060a08201905061267c60008301886124e8565b818103602083015261268e818761254e565b905081810360408301526126a2818661254e565b90506126b16060830185612587565b6126be6080830184612658565b9695505050505050565b60006020820190506126dd60008301846124e8565b92915050565b6126ec816124d6565b81146126f757600080fd5b50565b600081359050612709816126e3565b92915050565b60006020828403121561272557612724612449565b5b6000612733848285016126fa565b91505092915050565b600080fd5b600080fd5b600080fd5b60008083601f8401126127615761276061273c565b5b8235905067ffffffffffffffff81111561277e5761277d612741565b5b60208301915083600182028301111561279a57612799612746565b5b9250929050565b600080600080604085870312156127bb576127ba612449565b5b600085013567ffffffffffffffff8111156127d9576127d861244e565b5b6127e58782880161274b565b9450945050602085013567ffffffffffffffff8111156128085761280761244e565b5b6128148782880161274b565b925092505092959194509250565b600081519050919050565b600082825260208201905092915050565b6000819050602082019050919050565b600082825260208201905092915050565b600061286a826124f7565b612874818561284e565b9350612884818560208601612513565b61288d8161253d565b840191505092915050565b6128a18161264c565b82525050565b600060608301600083015184820360008601526128c4828261285f565b915050602083015184820360208601526128de828261285f565b91505060408301516128f36040860182612898565b508091505092915050565b600061290a83836128a7565b905092915050565b6000602082019050919050565b600061292a82612822565b612934818561282d565b9350836020820285016129468561283e565b8060005b85811015612982578484038952815161296385826128fe565b945061296e83612912565b925060208a0199505060018101905061294a565b50829750879550505050505092915050565b600060208201905081810360008301526129ae818461291f565b905092915050565b6129bf816124d6565b82525050565b6129ce81612453565b82525050565b600060c0830160008301516129ec6000860182612898565b5060208301516129ff60208601826129b6565b5060408301518482036040860152612a17828261285f565b9150506060830151612a2c60608601826129c5565b5060808301518482036080860152612a44828261285f565b91505060a083015184820360a0860152612a5e828261285f565b9150508091505092915050565b60006020820190508181036000830152612a8581846129d4565b905092915050565b60008060408385031215612aa457612aa3612449565b5b6000612ab2858286016126fa565b9250506020612ac385828601612474565b9150509250929050565b60006060820190508181036000830152612ae7818661254e565b90508181036020830152612afb818561254e565b9050612b0a6040830184612658565b949350505050565b600081519050919050565b600082825260208201905092915050565b6000819050602082019050919050565b6000608083016000830151612b5660008601826129b6565b5060208301518482036020860152612b6e828261285f565b9150506040830151612b8360408601826129c5565b5060608301518482036060860152612b9b828261285f565b9150508091505092915050565b6000612bb48383612b3e565b905092915050565b6000602082019050919050565b6000612bd482612b12565b612bde8185612b1d565b935083602082028501612bf085612b2e565b8060005b85811015612c2c5784840389528151612c0d8582612ba8565b9450612c1883612bbc565b925060208a01995050600181019050612bf4565b50829750879550505050505092915050565b60006020820190508181036000830152612c588184612bc9565b905092915050565b612c69816125e9565b82525050565b6000602082019050612c846000830184612c60565b92915050565b60008083601f840112612ca057612c9f61273c565b5b8235905067ffffffffffffffff811115612cbd57612cbc612741565b5b602083019150836001820283011115612cd957612cd8612746565b5b9250929050565b60008060008060008060006080888a031215612cff57612cfe612449565b5b6000612d0d8a828b0161260a565b975050602088013567ffffffffffffffff811115612d2e57612d2d61244e565b5b612d3a8a828b0161274b565b9650965050604088013567ffffffffffffffff811115612d5d57612d5c61244e565b5b612d698a828b0161274b565b9450945050606088013567ffffffffffffffff811115612d8c57612d8b61244e565b5b612d988a828b01612c8a565b925092505092959891949750929550565b7f4e487b7100000000000000000000000000000000000000000000000000000000600052602260045260246000fd5b60006002820490506001821680612df057607f821691505b602082108103612e0357612e02612da9565b5b50919050565b60008160601b9050919050565b6000612e2182612e09565b9050919050565b6000612e3382612e16565b9050919050565b612e4b612e46826124d6565b612e28565b82525050565b600081905092915050565b82818337600083830152505050565b6000612e778385612e51565b9350612e84838584612e5c565b82840190509392505050565b6000819050919050565b612eab612ea682612453565b612e90565b82525050565b6000612ebd8289612e3a565b601482019150612ece828789612e6b565b9150612edb828587612e6b565b9150612ee78284612e9a565b602082019150819050979650505050505050565b7f4e487b7100000000000000000000000000000000000000000000000000000000600052604160045260246000fd5b60008190508160005260206000209050919050565b60006020601f8301049050919050565b600082821b905092915050565b600060088302612f8c7fffffffffffffffffffffffffffffffffffffffffffffffffffffffffffffffff82612f4f565b612f968683612f4f565b95508019841693508086168417925050509392505050565b6000819050919050565b6000612fd3612fce612fc984612453565b612fae565b612453565b9050919050565b6000819050919050565b612fed83612fb8565b613001612ff982612fda565b848454612f5c565b825550505050565b600090565b613016613009565b613021818484612fe4565b505050565b5b818110156130455761303a60008261300e565b600181019050613027565b5050565b601f82111561308a5761305b81612f2a565b61306484612f3f565b81016020851015613073578190505b61308761307f85612f3f565b830182613026565b50505b505050565b600082821c905092915050565b60006130ad6000198460080261308f565b1980831691505092915050565b60006130c6838361309c565b9150826002028217905092915050565b6130df826124f7565b67ffffffffffffffff8111156130f8576130f7612efb565b5b6131028254612dd8565b61310d828285613049565b600060209050601f831160018114613140576000841561312e578287015190505b61313885826130ba565b8655506131a0565b601f19841661314e86612f2a565b60005b8281101561317657848901518255600182019150602085019450602081019050613151565b86831015613193578489015161318f601f89168261309c565b8355505b6001600288020188555050505b505050505050565b60006131b48385612502565b93506131c1838584612e5c565b6131ca8361253d565b840190509392505050565b600060408201905081810360008301526131f08186886131a8565b905081810360208301526132058184866131a8565b905095945050505050565b7f4e487b7100000000000000000000000000000000000000000000000000000000600052603260045260246000fd5b6000815461324c81612dd8565b6132568186612e51565b945060018216600081146132715760018114613286576132b9565b60ff19831686528115158202860193506132b9565b61328f85612f2a565b60005b838110156132b157815481890152600182019150602081019050613292565b838801955050505b50505092915050565b60006132ce828461323f565b915081905092915050565b600081905092915050565b60008190508160005260206000209050919050565b6000815461330681612dd8565b61331081866132d9565b9450600182166000811461332b576001811461334057613373565b60ff1983168652811515820286019350613373565b613349856132e4565b60005b8381101561336b5781548189015260018201915060208101905061334c565b838801955050505b50505092915050565b600061338882846132f9565b915081905092915050565b6000819050919050565b600067ffffffffffffffff82169050919050565b60006133cc6133c76133c284613393565b612fae565b61339d565b9050919050565b6133dc816133b1565b82525050565b60006020820190506133f760008301846133d3565b92915050565b7f4e487b7100000000000000000000000000000000000000000000000000000000600052601160045260246000fd5b600061343782612453565b91507fffffffffffffffffffffffffffffffffffffffffffffffffffffffffffffffff8203613469576134686133fd565b5b600182019050919050565b6000613481828486612e6b565b91508190509392505050565b7f55736572206973206e6f7420766572696669656420666f72207468697320706c60008201527f6174666f726d0000000000000000000000000000000000000000000000000000602082015250565b60006134e9602683612502565b91506134f48261348d565b604082019050919050565b60006020820190508181036000830152613518816134dc565b9050919050565b7f506f73742055524c2063616e6e6f7420626520656d7074790000000000000000600082015250565b6000613555601883612502565b91506135608261351f565b602082019050919050565b6000602082019050818103600083015261358481613548565b9050919050565b7f506f737420616c72656164792072656769737465726564000000000000000000600082015250565b60006135c1601783612502565b91506135cc8261358b565b602082019050919050565b600060208201905081810360008301526135f0816135b4565b9050919050565b600060608201905081810360008301526136128187896131a8565b90506136216020830186612587565b81810360408301526136348184866131a8565b90509695505050505050565b6000819050919050565b61365b613656826125e9565b613640565b82525050565b600061366d828961364a565b60208201915061367d8288612e3a565b60148201915061368e828688612e6b565b915061369b828486612e6b565b9150819050979650505050505050565b7f19457468657265756d205369676e6564204d6573736167653a0a333200000000600082015250565b60006136e1601c83612e51565b91506136ec826136ab565b601c82019050919050565b6000613702826136d4565b915061370e828461364a565b60208201915081905092915050565b7f496e76616c6964207665726966696572207369676e6174757265000000000000600082015250565b6000613753601a83612502565b915061375e8261371d565b602082019050919050565b6000602082019050818103600083015261378281613746565b9050919050565b7f496e76616c696420726571756573740000000000000000000000000000000000600082015250565b60006137bf600f83612502565b91506137ca82613789565b602082019050919050565b600060208201905081810360008301526137ee816137b2565b9050919050565b6000613800826124f7565b61380a8185612e51565b935061381a818560208601612513565b80840191505092915050565b600061383282846137f5565b915081905092915050565b7f506c6174666f726d20616c726561647920726567697374657265640000000000600082015250565b6000613873601b83612502565b915061387e8261383d565b602082019050919050565b600060208201905081810360008301526138a281613866565b9050919050565b600060408201905081810360008301526138c3818561254e565b905081810360208301526138d7818461254e565b90509392505050565b7f4e487b7100000000000000000000000000000000000000000000000000000000600052602160045260246000fd5b60006020820190506139246000830184612587565b92915050565b600060ff82169050919050565b6139408161392a565b82525050565b600060808201905061395b6000830187612c60565b6139686020830186613937565b6139756040830185612c60565b6139826060830184612c60565b9594505050505056fea26469706673582212205b061572ed47b7df71af65679e7f70a148b419ebf489172cf690439967858ea564736f6c634300081c0033",
  "linkReferences": {},
  "deployedLinkReferences": {}
}