{
  "_format": "hh-sol-artifact-1",
  "contractName": "SocialMediaVerification",
  "sourceName": "contracts/SocialMedia/SocialMediaVerification.sol",
  "abi": [
    {
      "inputs": [],
      "name": "ECDSAInvalidSignature",
      "type": "error"
    },
    {
      "inputs": [
        {
          "internalType": "uint256",
          "name": "length",
          "type": "uint256"
        }
      ],
      "name": "ECDSAInvalidSignatureLength",
      "type": "error"
    },
    {
      "inputs": [
        {
          "internalType": "bytes32",
          "name": "s",
          "type": "bytes32"
        }
      ],
      "name": "ECDSAInvalidSignatureS",
      "type": "error"
    },
    {
      "inputs": [],
      "name": "InvalidInitialization",
      "type": "error"
    },
    {
      "inputs": [],
      "name": "NotInitializing",
      "type": "error"
    },
    {
      "inputs": [
        {
          "internalType": "address",
          "name": "owner",
          "type": "address"
        }
      ],
      "name": "OwnableInvalidOwner",
      "type": "error"
    },
    {
      "inputs": [
        {
          "internalType": "address",
          "name": "account",
          "type": "address"
        }
      ],
      "name": "OwnableUnauthorizedAccount",
      "type": "error"
    },
    {
      "anonymous": false,
      "inputs": [
        {
          "indexed": false,
          "internalType": "uint64",
          "name": "version",
          "type": "uint64"
        }
      ],
      "name": "Initialized",
      "type": "event"
    },
    {
      "anonymous": false,
      "inputs": [
        {
          "indexed": true,
          "internalType": "address",
          "name": "previousOwner",
          "type": "address"
        },
        {
          "indexed": true,
          "internalType": "address",
          "name": "newOwner",
          "type": "address"
        }
      ],
      "name": "OwnershipTransferred",
      "type": "event"
    },
    {
      "anonymous": false,
      "inputs": [
        {
          "indexed": true,
          "internalType": "address",
          "name": "author",
          "type": "address"
        },
        {
          "indexed": true,
          "internalType": "bytes32",
          "name": "postHash",
          "type": "bytes32"
        },
        {
          "indexed": false,
          "internalType": "string",
          "name": "postUrl",
          "type": "string"
        },
        {
          "indexed": false,
          "internalType": "uint256",
          "name": "timestamp",
          "type": "uint256"
        },
        {
          "indexed": false,
          "internalType": "string",
          "name": "platform",
          "type": "string"
        }
      ],
      "name": "PostRegistered",
      "type": "event"
    },
    {
      "anonymous": false,
      "inputs": [
        {
          "indexed": true,
          "internalType": "address",
          "name": "user",
          "type": "address"
        },
        {
          "indexed": false,
          "internalType": "string",
          "name": "username",
          "type": "string"
        },
        {
          "indexed": false,
          "internalType": "string",
          "name": "platform",
          "type": "string"
        }
      ],
      "name": "SocialAccountRegistered",
      "type": "event"
    },
    {
      "anonymous": false,
      "inputs": [
        {
          "indexed": true,
          "internalType": "address",
          "name": "user",
          "type": "address"
        },
        {
          "indexed": true,
          "internalType": "address",
          "name": "signer",
          "type": "address"
        },
        {
          "indexed": true,
          "internalType": "address",
          "name": "verifier",
          "type": "address"
        },
        {
          "indexed": false,
          "internalType": "string",
          "name": "message",
          "type": "string"
        }
      ],
      "name": "VerificationFailed",
      "type": "event"
    },
    {
      "anonymous": false,
      "inputs": [
        {
          "indexed": true,
          "internalType": "bytes32",
          "name": "requestId",
          "type": "bytes32"
        },
        {
          "indexed": true,
          "internalType": "address",
          "name": "user",
          "type": "address"
        },
        {
          "indexed": false,
          "internalType": "string",
          "name": "username",
          "type": "string"
        },
        {
          "indexed": false,
          "internalType": "string",
          "name": "platform",
          "type": "string"
        }
      ],
      "name": "VerificationInitiated",
      "type": "event"
    },
    {
      "inputs": [
        {
          "internalType": "bytes32",
          "name": "requestId",
          "type": "bytes32"
        },
        {
          "internalType": "string",
          "name": "username",
          "type": "string"
        },
        {
          "internalType": "string",
          "name": "platform",
          "type": "string"
        },
        {
          "internalType": "bytes",
          "name": "signature",
          "type": "bytes"
        }
      ],
      "name": "confirmVerification",
      "outputs": [],
      "stateMutability": "nonpayable",
      "type": "function"
    },
    {
      "inputs": [],
      "name": "getAllPosts",
      "outputs": [
        {
          "components": [
            {
              "internalType": "address",
              "name": "author",
              "type": "address"
            },
            {
              "internalType": "string",
              "name": "postUrl",
              "type": "string"
            },
            {
              "internalType": "uint256",
              "name": "timestamp",
              "type": "uint256"
            },
            {
              "internalType": "string",
              "name": "platform",
              "type": "string"
            },
            {
              "internalType": "bytes32",
              "name": "postHash",
              "type": "bytes32"
            },
            {
              "internalType": "string",
              "name": "authorUsername",
              "type": "string"
            }
          ],
          "internalType": "struct SocialMediaVerification.Post[]",
          "name": "",
          "type": "tuple[]"
        }
      ],
      "stateMutability": "view",
      "type": "function"
    },
    {
      "inputs": [
        {
          "internalType": "address",
          "name": "user",
          "type": "address"
        }
      ],
      "name": "getUserPosts",
      "outputs": [
        {
          "components": [
            {
              "internalType": "address",
              "name": "author",
              "type": "address"
            },
            {
              "internalType": "string",
              "name": "postUrl",
              "type": "string"
            },
            {
              "internalType": "uint256",
              "name": "timestamp",
              "type": "uint256"
            },
            {
              "internalType": "string",
              "name": "platform",
              "type": "string"
            },
            {
              "internalType": "bytes32",
              "name": "postHash",
              "type": "bytes32"
            },
            {
              "internalType": "string",
              "name": "authorUsername",
              "type": "string"
            }
          ],
          "internalType": "struct SocialMediaVerification.Post[]",
          "name": "userPosts",
          "type": "tuple[]"
        }
      ],
      "stateMutability": "view",
      "type": "function"
    },
    {
      "inputs": [
        {
          "internalType": "address",
          "name": "user",
          "type": "address"
        }
      ],
      "name": "getUserSocialAccounts",
      "outputs": [
        {
          "components": [
            {
              "internalType": "string",
              "name": "username",
              "type": "string"
            },
            {
              "internalType": "string",
              "name": "platform",
              "type": "string"
            },
            {
              "internalType": "bool",
              "name": "isVerified",
              "type": "bool"
            },
            {
              "internalType": "uint256",
              "name": "postCount",
              "type": "uint256"
            }
          ],
          "internalType": "struct SocialMediaVerification.SocialAccount[]",
          "name": "",
          "type": "tuple[]"
        }
      ],
      "stateMutability": "view",
      "type": "function"
    },
    {
      "inputs": [],
      "name": "initialize",
      "outputs": [],
      "stateMutability": "nonpayable",
      "type": "function"
    },
    {
      "inputs": [
        {
          "internalType": "string",
          "name": "username",
          "type": "string"
        },
        {
          "internalType": "string",
          "name": "platform",
          "type": "string"
        }
      ],
      "name": "initiateVerification",
      "outputs": [],
      "stateMutability": "nonpayable",
      "type": "function"
    },
    {
      "inputs": [],
      "name": "owner",
      "outputs": [
        {
          "internalType": "address",
          "name": "",
          "type": "address"
        }
      ],
      "stateMutability": "view",
      "type": "function"
    },
    {
      "inputs": [
        {
          "internalType": "uint256",
          "name": "",
          "type": "uint256"
        }
      ],
      "name": "posts",
      "outputs": [
        {
          "internalType": "address",
          "name": "author",
          "type": "address"
        },
        {
          "internalType": "string",
          "name": "postUrl",
          "type": "string"
        },
        {
          "internalType": "uint256",
          "name": "timestamp",
          "type": "uint256"
        },
        {
          "internalType": "string",
          "name": "platform",
          "type": "string"
        },
        {
          "internalType": "bytes32",
          "name": "postHash",
          "type": "bytes32"
        },
        {
          "internalType": "string",
          "name": "authorUsername",
          "type": "string"
        }
      ],
      "stateMutability": "view",
      "type": "function"
    },
    {
      "inputs": [
        {
          "internalType": "string",
          "name": "postUrl",
          "type": "string"
        },
        {
          "internalType": "string",
          "name": "platform",
          "type": "string"
        }
      ],
      "name": "registerPost",
      "outputs": [
        {
          "internalType": "bytes32",
          "name": "postHash",
          "type": "bytes32"
        }
      ],
      "stateMutability": "nonpayable",
      "type": "function"
    },
    {
      "inputs": [],
      "name": "renounceOwnership",
      "outputs": [],
      "stateMutability": "nonpayable",
      "type": "function"
    },
    {
      "inputs": [
        {
          "internalType": "address",
          "name": "_verifier",
          "type": "address"
        }
      ],
      "name": "setVerifier",
      "outputs": [],
      "stateMutability": "nonpayable",
      "type": "function"
    },
    {
      "inputs": [
        {
          "internalType": "address",
          "name": "newOwner",
          "type": "address"
        }
      ],
      "name": "transferOwnership",
      "outputs": [],
      "stateMutability": "nonpayable",
      "type": "function"
    },
    {
      "inputs": [
        {
          "internalType": "address",
          "name": "",
          "type": "address"
        },
        {
          "internalType": "uint256",
          "name": "",
          "type": "uint256"
        }
      ],
      "name": "userAccounts",
      "outputs": [
        {
          "internalType": "string",
          "name": "username",
          "type": "string"
        },
        {
          "internalType": "string",
          "name": "platform",
          "type": "string"
        },
        {
          "internalType": "bool",
          "name": "isVerified",
          "type": "bool"
        },
        {
          "internalType": "uint256",
          "name": "postCount",
          "type": "uint256"
        }
      ],
      "stateMutability": "view",
      "type": "function"
    },
    {
      "inputs": [
        {
          "internalType": "address",
          "name": "",
          "type": "address"
        }
      ],
      "name": "userPostsCount",
      "outputs": [
        {
          "internalType": "uint256",
          "name": "",
          "type": "uint256"
        }
      ],
      "stateMutability": "view",
      "type": "function"
    },
    {
      "inputs": [
        {
          "internalType": "bytes32",
          "name": "",
          "type": "bytes32"
        }
      ],
      "name": "verificationRequests",
      "outputs": [
        {
          "internalType": "address",
          "name": "user",
          "type": "address"
        },
        {
          "internalType": "string",
          "name": "username",
          "type": "string"
        },
        {
          "internalType": "string",
          "name": "platform",
          "type": "string"
        },
        {
          "internalType": "uint256",
          "name": "timestamp",
          "type": "uint256"
        },
        {
          "internalType": "bool",
          "name": "isVerified",
          "type": "bool"
        }
      ],
      "stateMutability": "view",
      "type": "function"
    },
    {
      "inputs": [],
      "name": "verifier",
      "outputs": [
        {
          "internalType": "address",
          "name": "",
          "type": "address"
        }
      ],
      "stateMutability": "view",
      "type": "function"
    },
    {
      "inputs": [
        {
          "internalType": "bytes32",
          "name": "postHash",
          "type": "bytes32"
        }
      ],
      "name": "verifyPost",
      "outputs": [
        {
          "components": [
            {
              "internalType": "bool",
              "name": "exists",
              "type": "bool"
            },
            {
              "internalType": "address",
              "name": "author",
              "type": "address"
            },
            {
              "internalType": "string",
              "name": "platform",
              "type": "string"
            },
            {
              "internalType": "uint256",
              "name": "timestamp",
              "type": "uint256"
            },
            {
              "internalType": "string",
              "name": "authorUsername",
              "type": "string"
            },
            {
              "internalType": "string",
              "name": "postUrl",
              "type": "string"
            }
          ],
          "internalType": "struct SocialMediaVerification.PostVerificationInfo",
          "name": "info",
          "type": "tuple"
        }
      ],
      "stateMutability": "view",
      "type": "function"
    }
  ],
  "bytecode": "0x6080604052348015600f57600080fd5b506141248061001f6000396000f3fe608060405234801561001057600080fd5b506004361061010b5760003560e01c806375a47b5b116100a25780639a2194a9116100715780639a2194a9146102b2578063a5fc07bf146102e2578063b39ad0a214610312578063f2fde38b1461032e578063f75fdef21461034a5761010b565b806375a47b5b146102275780638129fc1c1461025757806383532d68146102615780638da5cb5b146102945761010b565b80635437988d116100de5780635437988d146101b557806360dea97c146101d157806366a9b9bf146101ed578063715018a61461021d5761010b565b80630b1e7f83146101105780630f3908c8146101455780632b7ac3f3146101795780633056110014610197575b600080fd5b61012a60048036038101906101259190612af4565b61037a565b60405161013c96959493929190612c1a565b60405180910390f35b61015f600480360381019061015a9190612cbc565b61057e565b604051610170959493929190612d04565b60405180910390f35b6101816106f1565b60405161018e9190612d65565b60405180910390f35b61019f610715565b6040516101ac9190612f50565b60405180910390f35b6101cf60048036038101906101ca9190612f9e565b610994565b005b6101eb60048036038101906101e69190613030565b6109df565b005b61020760048036038101906102029190612f9e565b610beb565b60405161021491906131ec565b60405180910390f35b610225610dd2565b005b610241600480360381019061023c9190612cbc565b610de6565b60405161024e91906132a5565b60405180910390f35b61025f6110af565b005b61027b600480360381019061027691906132c7565b611245565b60405161028b9493929190613307565b60405180910390f35b61029c6113af565b6040516102a99190612d65565b60405180910390f35b6102cc60048036038101906102c79190612f9e565b6113e7565b6040516102d99190612f50565b60405180910390f35b6102fc60048036038101906102f79190613030565b611731565b604051610309919061335a565b60405180910390f35b61032c600480360381019061032791906133cb565b611e40565b005b61034860048036038101906103439190612f9e565b61218c565b005b610364600480360381019061035f9190612f9e565b612212565b6040516103719190613494565b60405180910390f35b6004818154811061038a57600080fd5b90600052602060002090600602016000915090508060000160009054906101000a900473ffffffffffffffffffffffffffffffffffffffff16908060010180546103d3906134de565b80601f01602080910402602001604051908101604052809291908181526020018280546103ff906134de565b801561044c5780601f106104215761010080835404028352916020019161044c565b820191906000526020600020905b81548152906001019060200180831161042f57829003601f168201915b505050505090806002015490806003018054610467906134de565b80601f0160208091040260200160405190810160405280929190818152602001828054610493906134de565b80156104e05780601f106104b5576101008083540402835291602001916104e0565b820191906000526020600020905b8154815290600101906020018083116104c357829003601f168201915b5050505050908060040154908060050180546104fb906134de565b80601f0160208091040260200160405190810160405280929190818152602001828054610527906134de565b80156105745780601f1061054957610100808354040283529160200191610574565b820191906000526020600020905b81548152906001019060200180831161055757829003601f168201915b5050505050905086565b60076020528060005260406000206000915090508060000160009054906101000a900473ffffffffffffffffffffffffffffffffffffffff16908060010180546105c7906134de565b80601f01602080910402602001604051908101604052809291908181526020018280546105f3906134de565b80156106405780601f1061061557610100808354040283529160200191610640565b820191906000526020600020905b81548152906001019060200180831161062357829003601f168201915b505050505090806002018054610655906134de565b80601f0160208091040260200160405190810160405280929190818152602001828054610681906134de565b80156106ce5780601f106106a3576101008083540402835291602001916106ce565b820191906000526020600020905b8154815290600101906020018083116106b157829003601f168201915b5050505050908060030154908060040160009054906101000a900460ff16905085565b60008054906101000a900473ffffffffffffffffffffffffffffffffffffffff1681565b60606004805480602002602001604051908101604052809291908181526020016000905b8282101561098b57838290600052602060002090600602016040518060c00160405290816000820160009054906101000a900473ffffffffffffffffffffffffffffffffffffffff1673ffffffffffffffffffffffffffffffffffffffff1673ffffffffffffffffffffffffffffffffffffffff1681526020016001820180546107c2906134de565b80601f01602080910402602001604051908101604052809291908181526020018280546107ee906134de565b801561083b5780601f106108105761010080835404028352916020019161083b565b820191906000526020600020905b81548152906001019060200180831161081e57829003601f168201915b505050505081526020016002820154815260200160038201805461085e906134de565b80601f016020809104026020016040519081016040528092919081815260200182805461088a906134de565b80156108d75780601f106108ac576101008083540402835291602001916108d7565b820191906000526020600020905b8154815290600101906020018083116108ba57829003601f168201915b50505050508152602001600482015481526020016005820180546108fa906134de565b80601f0160208091040260200160405190810160405280929190818152602001828054610926906134de565b80156109735780601f1061094857610100808354040283529160200191610973565b820191906000526020600020905b81548152906001019060200180831161095657829003601f168201915b50505050508152505081526020019060010190610739565b50505050905090565b61099c61222a565b806000806101000a81548173ffffffffffffffffffffffffffffffffffffffff021916908373ffffffffffffffffffffffffffffffffffffffff16021790555050565b60003385858585426040516020016109fc969594939291906135b7565b6040516020818303038152906040528051906020012090506040518060a001604052803373ffffffffffffffffffffffffffffffffffffffff16815260200186868080601f016020809104026020016040519081016040528093929190818152602001838380828437600081840152601f19601f82011690508083019250505050505050815260200184848080601f016020809104026020016040519081016040528093929190818152602001838380828437600081840152601f19601f820116905080830192505050505050508152602001428152602001600015158152506007600083815260200190815260200160002060008201518160000160006101000a81548173ffffffffffffffffffffffffffffffffffffffff021916908373ffffffffffffffffffffffffffffffffffffffff1602179055506020820151816001019081610b4b91906137dc565b506040820151816002019081610b6191906137dc565b506060820151816003015560808201518160040160006101000a81548160ff0219169083151502179055509050503373ffffffffffffffffffffffffffffffffffffffff16817f8ba6a49d87e922e445e2ab642e5caa7bc7f5bf5dde75e046b78cacdcfc21c8ef87878787604051610bdc94939291906138db565b60405180910390a35050505050565b6060600160008373ffffffffffffffffffffffffffffffffffffffff1673ffffffffffffffffffffffffffffffffffffffff168152602001908152602001600020805480602002602001604051908101604052809291908181526020016000905b82821015610dc75783829060005260206000209060040201604051806080016040529081600082018054610c7f906134de565b80601f0160208091040260200160405190810160405280929190818152602001828054610cab906134de565b8015610cf85780601f10610ccd57610100808354040283529160200191610cf8565b820191906000526020600020905b815481529060010190602001808311610cdb57829003601f168201915b50505050508152602001600182018054610d11906134de565b80601f0160208091040260200160405190810160405280929190818152602001828054610d3d906134de565b8015610d8a5780601f10610d5f57610100808354040283529160200191610d8a565b820191906000526020600020905b815481529060010190602001808311610d6d57829003601f168201915b505050505081526020016002820160009054906101000a900460ff1615151515815260200160038201548152505081526020019060010190610c4c565b505050509050919050565b610dda61222a565b610de460006122b1565b565b610dee612a17565b60008160000190151590811515815250506000600560008481526020019081526020016000209050600073ffffffffffffffffffffffffffffffffffffffff168160000160009054906101000a900473ffffffffffffffffffffffffffffffffffffffff1673ffffffffffffffffffffffffffffffffffffffff16146110a95760018260000190151590811515815250508060000160009054906101000a900473ffffffffffffffffffffffffffffffffffffffff16826020019073ffffffffffffffffffffffffffffffffffffffff16908173ffffffffffffffffffffffffffffffffffffffff1681525050806003018054610eea906134de565b80601f0160208091040260200160405190810160405280929190818152602001828054610f16906134de565b8015610f635780601f10610f3857610100808354040283529160200191610f63565b820191906000526020600020905b815481529060010190602001808311610f4657829003601f168201915b505050505082604001819052508060020154826060018181525050806001018054610f8d906134de565b80601f0160208091040260200160405190810160405280929190818152602001828054610fb9906134de565b80156110065780601f10610fdb57610100808354040283529160200191611006565b820191906000526020600020905b815481529060010190602001808311610fe957829003601f168201915b50505050508260a00181905250806005018054611022906134de565b80601f016020809104026020016040519081016040528092919081815260200182805461104e906134de565b801561109b5780601f106110705761010080835404028352916020019161109b565b820191906000526020600020905b81548152906001019060200180831161107e57829003601f168201915b505050505082608001819052505b50919050565b60006110b9612388565b905060008160000160089054906101000a900460ff1615905060008260000160009054906101000a900467ffffffffffffffff1690506000808267ffffffffffffffff161480156111075750825b9050600060018367ffffffffffffffff1614801561113c575060003073ffffffffffffffffffffffffffffffffffffffff163b145b90508115801561114a575080155b15611181576040517ff92ee8a900000000000000000000000000000000000000000000000000000000815260040160405180910390fd5b60018560000160006101000a81548167ffffffffffffffff021916908367ffffffffffffffff16021790555083156111d15760018560000160086101000a81548160ff0219169083151502179055505b6111d96123b0565b6111e2336123f0565b831561123e5760008560000160086101000a81548160ff0219169083151502179055507fc7f505b2f371ae2175ee4913f4499e1f2633a7b5936321eed1cdaeb6115181d260016040516112359190613965565b60405180910390a15b5050505050565b6001602052816000526040600020818154811061126157600080fd5b906000526020600020906004020160009150915050806000018054611285906134de565b80601f01602080910402602001604051908101604052809291908181526020018280546112b1906134de565b80156112fe5780601f106112d3576101008083540402835291602001916112fe565b820191906000526020600020905b8154815290600101906020018083116112e157829003601f168201915b505050505090806001018054611313906134de565b80601f016020809104026020016040519081016040528092919081815260200182805461133f906134de565b801561138c5780601f106113615761010080835404028352916020019161138c565b820191906000526020600020905b81548152906001019060200180831161136f57829003601f168201915b5050505050908060020160009054906101000a900460ff16908060030154905084565b6000806113ba612404565b90508060000160009054906101000a900473ffffffffffffffffffffffffffffffffffffffff1691505090565b60606000600660008473ffffffffffffffffffffffffffffffffffffffff1673ffffffffffffffffffffffffffffffffffffffff1681526020019081526020016000209050808054905067ffffffffffffffff81111561144a57611449613601565b5b60405190808252806020026020018201604052801561148357816020015b611470612a65565b8152602001906001900390816114685790505b50915060005b818054905081101561172a5760048282815481106114aa576114a9613980565b5b9060005260206000200154815481106114c6576114c5613980565b5b90600052602060002090600602016040518060c00160405290816000820160009054906101000a900473ffffffffffffffffffffffffffffffffffffffff1673ffffffffffffffffffffffffffffffffffffffff1673ffffffffffffffffffffffffffffffffffffffff168152602001600182018054611545906134de565b80601f0160208091040260200160405190810160405280929190818152602001828054611571906134de565b80156115be5780601f10611593576101008083540402835291602001916115be565b820191906000526020600020905b8154815290600101906020018083116115a157829003601f168201915b50505050508152602001600282015481526020016003820180546115e1906134de565b80601f016020809104026020016040519081016040528092919081815260200182805461160d906134de565b801561165a5780601f1061162f5761010080835404028352916020019161165a565b820191906000526020600020905b81548152906001019060200180831161163d57829003601f168201915b505050505081526020016004820154815260200160058201805461167d906134de565b80601f01602080910402602001604051908101604052809291908181526020018280546116a9906134de565b80156116f65780601f106116cb576101008083540402835291602001916116f6565b820191906000526020600020905b8154815290600101906020018083116116d957829003601f168201915b50505050508152505083828151811061171257611711613980565b5b60200260200101819052508080600101915050611489565b5050919050565b6000600360003373ffffffffffffffffffffffffffffffffffffffff1673ffffffffffffffffffffffffffffffffffffffff16815260200190815260200160002083836040516117829291906139af565b908152602001604051809103902060009054906101000a900460ff166117dd576040517f08c379a00000000000000000000000000000000000000000000000000000000081526004016117d490613a3a565b60405180910390fd5b60008585905011611823576040517f08c379a000000000000000000000000000000000000000000000000000000000815260040161181a90613aa6565b60405180910390fd5b84846040516020016118369291906139af565b604051602081830303815290604052805190602001209050600073ffffffffffffffffffffffffffffffffffffffff166005600083815260200190815260200160002060000160009054906101000a900473ffffffffffffffffffffffffffffffffffffffff1673ffffffffffffffffffffffffffffffffffffffff16146118f3576040517f08c379a00000000000000000000000000000000000000000000000000000000081526004016118ea90613b12565b60405180910390fd5b6000600160003373ffffffffffffffffffffffffffffffffffffffff1673ffffffffffffffffffffffffffffffffffffffff1681526020019081526020016000209050606060005b8280549050811015611a8057858560405160200161195a9291906139af565b6040516020818303038152906040528051906020012083828154811061198357611982613980565b5b90600052602060002090600402016001016040516020016119a49190613bb5565b6040516020818303038152906040528051906020012003611a73578281815481106119d2576119d1613980565b5b906000526020600020906004020160000180546119ee906134de565b80601f0160208091040260200160405190810160405280929190818152602001828054611a1a906134de565b8015611a675780601f10611a3c57610100808354040283529160200191611a67565b820191906000526020600020905b815481529060010190602001808311611a4a57829003601f168201915b50505050509150611a80565b808060010191505061193b565b506000600480549050905060046040518060c001604052803373ffffffffffffffffffffffffffffffffffffffff1681526020018a8a8080601f016020809104026020016040519081016040528093929190818152602001838380828437600081840152601f19601f82011690508083019250505050505050815260200142815260200188888080601f016020809104026020016040519081016040528093929190818152602001838380828437600081840152601f19601f82011690508083019250505050505050815260200186815260200184815250908060018154018082558091505060019003906000526020600020906006020160009091909190915060008201518160000160006101000a81548173ffffffffffffffffffffffffffffffffffffffff021916908373ffffffffffffffffffffffffffffffffffffffff1602179055506020820151816001019081611bdd91906137dc565b50604082015181600201556060820151816003019081611bfd91906137dc565b506080820151816004015560a0820151816005019081611c1d91906137dc565b50505060046001600480549050611c349190613bfb565b81548110611c4557611c44613980565b5b9060005260206000209060060201600560008681526020019081526020016000206000820160009054906101000a900473ffffffffffffffffffffffffffffffffffffffff168160000160006101000a81548173ffffffffffffffffffffffffffffffffffffffff021916908373ffffffffffffffffffffffffffffffffffffffff16021790555060018201816001019081611ce19190613c45565b506002820154816002015560038201816003019081611d009190613c45565b506004820154816004015560058201816005019081611d1f9190613c45565b50905050600260003373ffffffffffffffffffffffffffffffffffffffff1673ffffffffffffffffffffffffffffffffffffffff1681526020019081526020016000206000815480929190611d7390613d2d565b9190505550600660003373ffffffffffffffffffffffffffffffffffffffff1673ffffffffffffffffffffffffffffffffffffffff168152602001908152602001600020819080600181540180825580915050600190039060005260206000200160009091909190915055833373ffffffffffffffffffffffffffffffffffffffff167f848c5a01b0201c6623ddbd32934192271068b3da0c7e2bb032b10a312f6b79298a8a428b8b604051611e2d959493929190613d75565b60405180910390a3505050949350505050565b6000873388888888604051602001611e5d96959493929190613ddf565b604051602081830303815290604052805190602001209050600081604051602001611e889190613e75565b6040516020818303038152906040528051906020012090506000611ef08286868080601f016020809104026020016040519081016040528093929190818152602001838380828437600081840152601f19601f8201169050808301925050505050505061242c565b905060008054906101000a900473ffffffffffffffffffffffffffffffffffffffff1673ffffffffffffffffffffffffffffffffffffffff168173ffffffffffffffffffffffffffffffffffffffff161461201a5760008054906101000a900473ffffffffffffffffffffffffffffffffffffffff1673ffffffffffffffffffffffffffffffffffffffff168173ffffffffffffffffffffffffffffffffffffffff163373ffffffffffffffffffffffffffffffffffffffff167fc5951fc1615a641a775040262da6d536c6254c0a611e5ea1cdf1e78143c1ccad604051611fd790613ee7565b60405180910390a46040517f08c379a000000000000000000000000000000000000000000000000000000000815260040161201190613ee7565b60405180910390fd5b3373ffffffffffffffffffffffffffffffffffffffff16600760008c815260200190815260200160002060000160009054906101000a900473ffffffffffffffffffffffffffffffffffffffff1673ffffffffffffffffffffffffffffffffffffffff16146120be576040517f08c379a00000000000000000000000000000000000000000000000000000000081526004016120b590613f53565b60405180910390fd5b6001600760008c815260200190815260200160002060040160006101000a81548160ff021916908315150217905550612180338a8a8080601f016020809104026020016040519081016040528093929190818152602001838380828437600081840152601f19601f8201169050808301925050505050505089898080601f016020809104026020016040519081016040528093929190818152602001838380828437600081840152601f19601f82011690508083019250505050505050612458565b50505050505050505050565b61219461222a565b600073ffffffffffffffffffffffffffffffffffffffff168173ffffffffffffffffffffffffffffffffffffffff16036122065760006040517f1e4fbdf70000000000000000000000000000000000000000000000000000000081526004016121fd9190612d65565b60405180910390fd5b61220f816122b1565b50565b60026020528060005260406000206000915090505481565b6122326126b5565b73ffffffffffffffffffffffffffffffffffffffff166122506113af565b73ffffffffffffffffffffffffffffffffffffffff16146122af576122736126b5565b6040517f118cdaa70000000000000000000000000000000000000000000000000000000081526004016122a69190612d65565b60405180910390fd5b565b60006122bb612404565b905060008160000160009054906101000a900473ffffffffffffffffffffffffffffffffffffffff169050828260000160006101000a81548173ffffffffffffffffffffffffffffffffffffffff021916908373ffffffffffffffffffffffffffffffffffffffff1602179055508273ffffffffffffffffffffffffffffffffffffffff168173ffffffffffffffffffffffffffffffffffffffff167f8be0079c531659141344cd1fd0a4f28419497f9722a3daafe3b4186f6b6457e060405160405180910390a3505050565b60007ff0c57e16840df040f15088dc2f81fe391c3923bec73e23a9662efc9c229c6a00905090565b6123b86126bd565b6123ee576040517fd7e6bcf800000000000000000000000000000000000000000000000000000000815260040160405180910390fd5b565b6123f86123b0565b612401816126dd565b50565b60007f9016d09d72d40fdae2fd8ceac6b6234c7706214fd39c1cd1e609a0528c199300905090565b60008060008061243c8686612763565b92509250925061244c82826127bf565b82935050505092915050565b600360008473ffffffffffffffffffffffffffffffffffffffff1673ffffffffffffffffffffffffffffffffffffffff168152602001908152602001600020816040516124a59190613fa4565b908152602001604051809103902060009054906101000a900460ff1615612501576040517f08c379a00000000000000000000000000000000000000000000000000000000081526004016124f890614007565b60405180910390fd5b6000604051806080016040528084815260200183815260200160011515815260200160008152509050600160008573ffffffffffffffffffffffffffffffffffffffff1673ffffffffffffffffffffffffffffffffffffffff16815260200190815260200160002081908060018154018082558091505060019003906000526020600020906004020160009091909190915060008201518160000190816125a891906137dc565b5060208201518160010190816125be91906137dc565b5060408201518160020160006101000a81548160ff0219169083151502179055506060820151816003015550506001600360008673ffffffffffffffffffffffffffffffffffffffff1673ffffffffffffffffffffffffffffffffffffffff1681526020019081526020016000208360405161263a9190613fa4565b908152602001604051809103902060006101000a81548160ff0219169083151502179055508373ffffffffffffffffffffffffffffffffffffffff167fd754dba48a113eeef42241f5cc802550bbd501b4e20787770737cb0646f5f0ed84846040516126a7929190614027565b60405180910390a250505050565b600033905090565b60006126c7612388565b60000160089054906101000a900460ff16905090565b6126e56123b0565b600073ffffffffffffffffffffffffffffffffffffffff168173ffffffffffffffffffffffffffffffffffffffff16036127575760006040517f1e4fbdf700000000000000000000000000000000000000000000000000000000815260040161274e9190612d65565b60405180910390fd5b612760816122b1565b50565b600080600060418451036127a85760008060006020870151925060408701519150606087015160001a905061279a88828585612923565b9550955095505050506127b8565b60006002855160001b9250925092505b9250925092565b600060038111156127d3576127d261405e565b5b8260038111156127e6576127e561405e565b5b031561291f5760016003811115612800576127ff61405e565b5b8260038111156128135761281261405e565b5b0361284a576040517ff645eedf00000000000000000000000000000000000000000000000000000000815260040160405180910390fd5b6002600381111561285e5761285d61405e565b5b8260038111156128715761287061405e565b5b036128b6578060001c6040517ffce698f70000000000000000000000000000000000000000000000000000000081526004016128ad9190613494565b60405180910390fd5b6003808111156128c9576128c861405e565b5b8260038111156128dc576128db61405e565b5b0361291e57806040517fd78bce0c000000000000000000000000000000000000000000000000000000008152600401612915919061335a565b60405180910390fd5b5b5050565b60008060007f7fffffffffffffffffffffffffffffff5d576e7357a4501ddfe92f46681b20a08460001c1115612963576000600385925092509250612a0d565b60006001888888886040516000815260200160405260405161298894939291906140a9565b6020604051602081039080840390855afa1580156129aa573d6000803e3d6000fd5b505050602060405103519050600073ffffffffffffffffffffffffffffffffffffffff168173ffffffffffffffffffffffffffffffffffffffff16036129fe57600060016000801b93509350935050612a0d565b8060008060001b935093509350505b9450945094915050565b6040518060c00160405280600015158152602001600073ffffffffffffffffffffffffffffffffffffffff168152602001606081526020016000815260200160608152602001606081525090565b6040518060c00160405280600073ffffffffffffffffffffffffffffffffffffffff16815260200160608152602001600081526020016060815260200160008019168152602001606081525090565b600080fd5b600080fd5b6000819050919050565b612ad181612abe565b8114612adc57600080fd5b50565b600081359050612aee81612ac8565b92915050565b600060208284031215612b0a57612b09612ab4565b5b6000612b1884828501612adf565b91505092915050565b600073ffffffffffffffffffffffffffffffffffffffff82169050919050565b6000612b4c82612b21565b9050919050565b612b5c81612b41565b82525050565b600081519050919050565b600082825260208201905092915050565b60005b83811015612b9c578082015181840152602081019050612b81565b60008484015250505050565b6000601f19601f8301169050919050565b6000612bc482612b62565b612bce8185612b6d565b9350612bde818560208601612b7e565b612be781612ba8565b840191505092915050565b612bfb81612abe565b82525050565b6000819050919050565b612c1481612c01565b82525050565b600060c082019050612c2f6000830189612b53565b8181036020830152612c418188612bb9565b9050612c506040830187612bf2565b8181036060830152612c628186612bb9565b9050612c716080830185612c0b565b81810360a0830152612c838184612bb9565b9050979650505050505050565b612c9981612c01565b8114612ca457600080fd5b50565b600081359050612cb681612c90565b92915050565b600060208284031215612cd257612cd1612ab4565b5b6000612ce084828501612ca7565b91505092915050565b60008115159050919050565b612cfe81612ce9565b82525050565b600060a082019050612d196000830188612b53565b8181036020830152612d2b8187612bb9565b90508181036040830152612d3f8186612bb9565b9050612d4e6060830185612bf2565b612d5b6080830184612cf5565b9695505050505050565b6000602082019050612d7a6000830184612b53565b92915050565b600081519050919050565b600082825260208201905092915050565b6000819050602082019050919050565b612db581612b41565b82525050565b600082825260208201905092915050565b6000612dd782612b62565b612de18185612dbb565b9350612df1818560208601612b7e565b612dfa81612ba8565b840191505092915050565b612e0e81612abe565b82525050565b612e1d81612c01565b82525050565b600060c083016000830151612e3b6000860182612dac565b5060208301518482036020860152612e538282612dcc565b9150506040830151612e686040860182612e05565b5060608301518482036060860152612e808282612dcc565b9150506080830151612e956080860182612e14565b5060a083015184820360a0860152612ead8282612dcc565b9150508091505092915050565b6000612ec68383612e23565b905092915050565b6000602082019050919050565b6000612ee682612d80565b612ef08185612d8b565b935083602082028501612f0285612d9c565b8060005b85811015612f3e5784840389528151612f1f8582612eba565b9450612f2a83612ece565b925060208a01995050600181019050612f06565b50829750879550505050505092915050565b60006020820190508181036000830152612f6a8184612edb565b905092915050565b612f7b81612b41565b8114612f8657600080fd5b50565b600081359050612f9881612f72565b92915050565b600060208284031215612fb457612fb3612ab4565b5b6000612fc284828501612f89565b91505092915050565b600080fd5b600080fd5b600080fd5b60008083601f840112612ff057612fef612fcb565b5b8235905067ffffffffffffffff81111561300d5761300c612fd0565b5b60208301915083600182028301111561302957613028612fd5565b5b9250929050565b6000806000806040858703121561304a57613049612ab4565b5b600085013567ffffffffffffffff81111561306857613067612ab9565b5b61307487828801612fda565b9450945050602085013567ffffffffffffffff81111561309757613096612ab9565b5b6130a387828801612fda565b925092505092959194509250565b600081519050919050565b600082825260208201905092915050565b6000819050602082019050919050565b6130e681612ce9565b82525050565b600060808301600083015184820360008601526131098282612dcc565b915050602083015184820360208601526131238282612dcc565b915050604083015161313860408601826130dd565b50606083015161314b6060860182612e05565b508091505092915050565b600061316283836130ec565b905092915050565b6000602082019050919050565b6000613182826130b1565b61318c81856130bc565b93508360208202850161319e856130cd565b8060005b858110156131da57848403895281516131bb8582613156565b94506131c68361316a565b925060208a019950506001810190506131a2565b50829750879550505050505092915050565b600060208201905081810360008301526132068184613177565b905092915050565b600060c08301600083015161322660008601826130dd565b5060208301516132396020860182612dac565b50604083015184820360408601526132518282612dcc565b91505060608301516132666060860182612e05565b506080830151848203608086015261327e8282612dcc565b91505060a083015184820360a08601526132988282612dcc565b9150508091505092915050565b600060208201905081810360008301526132bf818461320e565b905092915050565b600080604083850312156132de576132dd612ab4565b5b60006132ec85828601612f89565b92505060206132fd85828601612adf565b9150509250929050565b600060808201905081810360008301526133218187612bb9565b905081810360208301526133358186612bb9565b90506133446040830185612cf5565b6133516060830184612bf2565b95945050505050565b600060208201905061336f6000830184612c0b565b92915050565b60008083601f84011261338b5761338a612fcb565b5b8235905067ffffffffffffffff8111156133a8576133a7612fd0565b5b6020830191508360018202830111156133c4576133c3612fd5565b5b9250929050565b60008060008060008060006080888a0312156133ea576133e9612ab4565b5b60006133f88a828b01612ca7565b975050602088013567ffffffffffffffff81111561341957613418612ab9565b5b6134258a828b01612fda565b9650965050604088013567ffffffffffffffff81111561344857613447612ab9565b5b6134548a828b01612fda565b9450945050606088013567ffffffffffffffff81111561347757613476612ab9565b5b6134838a828b01613375565b925092505092959891949750929550565b60006020820190506134a96000830184612bf2565b92915050565b7f4e487b7100000000000000000000000000000000000000000000000000000000600052602260045260246000fd5b600060028204905060018216806134f657607f821691505b602082108103613509576135086134af565b5b50919050565b60008160601b9050919050565b60006135278261350f565b9050919050565b60006135398261351c565b9050919050565b61355161354c82612b41565b61352e565b82525050565b600081905092915050565b82818337600083830152505050565b600061357d8385613557565b935061358a838584613562565b82840190509392505050565b6000819050919050565b6135b16135ac82612abe565b613596565b82525050565b60006135c38289613540565b6014820191506135d4828789613571565b91506135e1828587613571565b91506135ed82846135a0565b602082019150819050979650505050505050565b7f4e487b7100000000000000000000000000000000000000000000000000000000600052604160045260246000fd5b60008190508160005260206000209050919050565b60006020601f8301049050919050565b600082821b905092915050565b6000600883026136927fffffffffffffffffffffffffffffffffffffffffffffffffffffffffffffffff82613655565b61369c8683613655565b95508019841693508086168417925050509392505050565b6000819050919050565b60006136d96136d46136cf84612abe565b6136b4565b612abe565b9050919050565b6000819050919050565b6136f3836136be565b6137076136ff826136e0565b848454613662565b825550505050565b600090565b61371c61370f565b6137278184846136ea565b505050565b5b8181101561374b57613740600082613714565b60018101905061372d565b5050565b601f8211156137905761376181613630565b61376a84613645565b81016020851015613779578190505b61378d61378585613645565b83018261372c565b50505b505050565b600082821c905092915050565b60006137b360001984600802613795565b1980831691505092915050565b60006137cc83836137a2565b9150826002028217905092915050565b6137e582612b62565b67ffffffffffffffff8111156137fe576137fd613601565b5b61380882546134de565b61381382828561374f565b600060209050601f8311600181146138465760008415613834578287015190505b61383e85826137c0565b8655506138a6565b601f19841661385486613630565b60005b8281101561387c57848901518255600182019150602085019450602081019050613857565b868310156138995784890151613895601f8916826137a2565b8355505b6001600288020188555050505b505050505050565b60006138ba8385612b6d565b93506138c7838584613562565b6138d083612ba8565b840190509392505050565b600060408201905081810360008301526138f68186886138ae565b9050818103602083015261390b8184866138ae565b905095945050505050565b6000819050919050565b600067ffffffffffffffff82169050919050565b600061394f61394a61394584613916565b6136b4565b613920565b9050919050565b61395f81613934565b82525050565b600060208201905061397a6000830184613956565b92915050565b7f4e487b7100000000000000000000000000000000000000000000000000000000600052603260045260246000fd5b60006139bc828486613571565b91508190509392505050565b7f55736572206973206e6f7420766572696669656420666f72207468697320706c60008201527f6174666f726d0000000000000000000000000000000000000000000000000000602082015250565b6000613a24602683612b6d565b9150613a2f826139c8565b604082019050919050565b60006020820190508181036000830152613a5381613a17565b9050919050565b7f506f73742055524c2063616e6e6f7420626520656d7074790000000000000000600082015250565b6000613a90601883612b6d565b9150613a9b82613a5a565b602082019050919050565b60006020820190508181036000830152613abf81613a83565b9050919050565b7f506f737420616c72656164792072656769737465726564000000000000000000600082015250565b6000613afc601783612b6d565b9150613b0782613ac6565b602082019050919050565b60006020820190508181036000830152613b2b81613aef565b9050919050565b60008154613b3f816134de565b613b498186613557565b94506001821660008114613b645760018114613b7957613bac565b60ff1983168652811515820286019350613bac565b613b8285613630565b60005b83811015613ba457815481890152600182019150602081019050613b85565b838801955050505b50505092915050565b6000613bc18284613b32565b915081905092915050565b7f4e487b7100000000000000000000000000000000000000000000000000000000600052601160045260246000fd5b6000613c0682612abe565b9150613c1183612abe565b9250828203905081811115613c2957613c28613bcc565b5b92915050565b600081549050613c3e816134de565b9050919050565b818103613c53575050613d2b565b613c5c82613c2f565b67ffffffffffffffff811115613c7557613c74613601565b5b613c7f82546134de565b613c8a82828561374f565b6000601f831160018114613cb95760008415613ca7578287015490505b613cb185826137c0565b865550613d24565b601f198416613cc787613630565b9650613cd286613630565b60005b82811015613cfa57848901548255600182019150600185019450602081019050613cd5565b86831015613d175784890154613d13601f8916826137a2565b8355505b6001600288020188555050505b5050505050505b565b6000613d3882612abe565b91507fffffffffffffffffffffffffffffffffffffffffffffffffffffffffffffffff8203613d6a57613d69613bcc565b5b600182019050919050565b60006060820190508181036000830152613d908187896138ae565b9050613d9f6020830186612bf2565b8181036040830152613db28184866138ae565b90509695505050505050565b6000819050919050565b613dd9613dd482612c01565b613dbe565b82525050565b6000613deb8289613dc8565b602082019150613dfb8288613540565b601482019150613e0c828688613571565b9150613e19828486613571565b9150819050979650505050505050565b7f19457468657265756d205369676e6564204d6573736167653a0a333200000000600082015250565b6000613e5f601c83613557565b9150613e6a82613e29565b601c82019050919050565b6000613e8082613e52565b9150613e8c8284613dc8565b60208201915081905092915050565b7f496e76616c6964207665726966696572207369676e6174757265000000000000600082015250565b6000613ed1601a83612b6d565b9150613edc82613e9b565b602082019050919050565b60006020820190508181036000830152613f0081613ec4565b9050919050565b7f496e76616c696420726571756573740000000000000000000000000000000000600082015250565b6000613f3d600f83612b6d565b9150613f4882613f07565b602082019050919050565b60006020820190508181036000830152613f6c81613f30565b9050919050565b6000613f7e82612b62565b613f888185613557565b9350613f98818560208601612b7e565b80840191505092915050565b6000613fb08284613f73565b915081905092915050565b7f506c6174666f726d20616c726561647920726567697374657265640000000000600082015250565b6000613ff1601b83612b6d565b9150613ffc82613fbb565b602082019050919050565b6000602082019050818103600083015261402081613fe4565b9050919050565b600060408201905081810360008301526140418185612bb9565b905081810360208301526140558184612bb9565b90509392505050565b7f4e487b7100000000000000000000000000000000000000000000000000000000600052602160045260246000fd5b600060ff82169050919050565b6140a38161408d565b82525050565b60006080820190506140be6000830187612c0b565b6140cb602083018661409a565b6140d86040830185612c0b565b6140e56060830184612c0b565b9594505050505056fea26469706673582212205453cf413a69f1da1934d027395790d2818339382f9be734d751c167727a51bb64736f6c634300081c0033",
  "linkReferences": {},
  "deployedLinkReferences": {}
}