{
  "_format": "hh-sol-artifact-1",
  "contractName": "NFTCollectionV2",
  "sourceName": "contracts/NFTCollectionV2.sol",
  "abi": [
    {
      "inputs": [
        {
          "internalType": "address",
          "name": "sender",
          "type": "address"
        },
        {
          "internalType": "uint256",
          "name": "tokenId",
          "type": "uint256"
        },
        {
          "internalType": "address",
          "name": "owner",
          "type": "address"
        }
      ],
      "name": "ERC721IncorrectOwner",
      "type": "error"
    },
    {
      "inputs": [
        {
          "internalType": "address",
          "name": "operator",
          "type": "address"
        },
        {
          "internalType": "uint256",
          "name": "tokenId",
          "type": "uint256"
        }
      ],
      "name": "ERC721InsufficientApproval",
      "type": "error"
    },
    {
      "inputs": [
        {
          "internalType": "address",
          "name": "approver",
          "type": "address"
        }
      ],
      "name": "ERC721InvalidApprover",
      "type": "error"
    },
    {
      "inputs": [
        {
          "internalType": "address",
          "name": "operator",
          "type": "address"
        }
      ],
      "name": "ERC721InvalidOperator",
      "type": "error"
    },
    {
      "inputs": [
        {
          "internalType": "address",
          "name": "owner",
          "type": "address"
        }
      ],
      "name": "ERC721InvalidOwner",
      "type": "error"
    },
    {
      "inputs": [
        {
          "internalType": "address",
          "name": "receiver",
          "type": "address"
        }
      ],
      "name": "ERC721InvalidReceiver",
      "type": "error"
    },
    {
      "inputs": [
        {
          "internalType": "address",
          "name": "sender",
          "type": "address"
        }
      ],
      "name": "ERC721InvalidSender",
      "type": "error"
    },
    {
      "inputs": [
        {
          "internalType": "uint256",
          "name": "tokenId",
          "type": "uint256"
        }
      ],
      "name": "ERC721NonexistentToken",
      "type": "error"
    },
    {
      "inputs": [],
      "name": "InvalidInitialization",
      "type": "error"
    },
    {
      "inputs": [],
      "name": "NotInitializing",
      "type": "error"
    },
    {
      "inputs": [
        {
          "internalType": "address",
          "name": "owner",
          "type": "address"
        }
      ],
      "name": "OwnableInvalidOwner",
      "type": "error"
    },
    {
      "inputs": [
        {
          "internalType": "address",
          "name": "account",
          "type": "address"
        }
      ],
      "name": "OwnableUnauthorizedAccount",
      "type": "error"
    },
    {
      "anonymous": false,
      "inputs": [
        {
          "indexed": true,
          "internalType": "address",
          "name": "owner",
          "type": "address"
        },
        {
          "indexed": true,
          "internalType": "address",
          "name": "approved",
          "type": "address"
        },
        {
          "indexed": true,
          "internalType": "uint256",
          "name": "tokenId",
          "type": "uint256"
        }
      ],
      "name": "Approval",
      "type": "event"
    },
    {
      "anonymous": false,
      "inputs": [
        {
          "indexed": true,
          "internalType": "address",
          "name": "owner",
          "type": "address"
        },
        {
          "indexed": true,
          "internalType": "address",
          "name": "operator",
          "type": "address"
        },
        {
          "indexed": false,
          "internalType": "bool",
          "name": "approved",
          "type": "bool"
        }
      ],
      "name": "ApprovalForAll",
      "type": "event"
    },
    {
      "anonymous": false,
      "inputs": [
        {
          "indexed": false,
          "internalType": "uint256",
          "name": "_fromTokenId",
          "type": "uint256"
        },
        {
          "indexed": false,
          "internalType": "uint256",
          "name": "_toTokenId",
          "type": "uint256"
        }
      ],
      "name": "BatchMetadataUpdate",
      "type": "event"
    },
    {
      "anonymous": false,
      "inputs": [
        {
          "indexed": false,
          "internalType": "uint64",
          "name": "version",
          "type": "uint64"
        }
      ],
      "name": "Initialized",
      "type": "event"
    },
    {
      "anonymous": false,
      "inputs": [
        {
          "indexed": false,
          "internalType": "uint256",
          "name": "_tokenId",
          "type": "uint256"
        }
      ],
      "name": "MetadataUpdate",
      "type": "event"
    },
    {
      "anonymous": false,
      "inputs": [
        {
          "indexed": true,
          "internalType": "address",
          "name": "previousOwner",
          "type": "address"
        },
        {
          "indexed": true,
          "internalType": "address",
          "name": "newOwner",
          "type": "address"
        }
      ],
      "name": "OwnershipTransferred",
      "type": "event"
    },
    {
      "anonymous": false,
      "inputs": [
        {
          "indexed": true,
          "internalType": "address",
          "name": "from",
          "type": "address"
        },
        {
          "indexed": true,
          "internalType": "address",
          "name": "to",
          "type": "address"
        },
        {
          "indexed": true,
          "internalType": "uint256",
          "name": "tokenId",
          "type": "uint256"
        }
      ],
      "name": "Transfer",
      "type": "event"
    },
    {
      "inputs": [
        {
          "internalType": "address",
          "name": "to",
          "type": "address"
        },
        {
          "internalType": "uint256",
          "name": "tokenId",
          "type": "uint256"
        }
      ],
      "name": "approve",
      "outputs": [],
      "stateMutability": "nonpayable",
      "type": "function"
    },
    {
      "inputs": [
        {
          "internalType": "address",
          "name": "owner",
          "type": "address"
        }
      ],
      "name": "balanceOf",
      "outputs": [
        {
          "internalType": "uint256",
          "name": "",
          "type": "uint256"
        }
      ],
      "stateMutability": "view",
      "type": "function"
    },
    {
      "inputs": [
        {
          "internalType": "uint256",
          "name": "tokenId",
          "type": "uint256"
        }
      ],
      "name": "burn",
      "outputs": [],
      "stateMutability": "nonpayable",
      "type": "function"
    },
    {
      "inputs": [
        {
          "internalType": "uint256",
          "name": "tokenId",
          "type": "uint256"
        }
      ],
      "name": "buyNFT",
      "outputs": [],
      "stateMutability": "payable",
      "type": "function"
    },
    {
      "inputs": [
        {
          "internalType": "uint256",
          "name": "tokenId",
          "type": "uint256"
        }
      ],
      "name": "getApproved",
      "outputs": [
        {
          "internalType": "address",
          "name": "",
          "type": "address"
        }
      ],
      "stateMutability": "view",
      "type": "function"
    },
    {
      "inputs": [],
      "name": "getResourceBase",
      "outputs": [
        {
          "internalType": "string",
          "name": "",
          "type": "string"
        }
      ],
      "stateMutability": "view",
      "type": "function"
    },
    {
      "inputs": [],
      "name": "initialize",
      "outputs": [],
      "stateMutability": "nonpayable",
      "type": "function"
    },
    {
      "inputs": [
        {
          "internalType": "address",
          "name": "owner",
          "type": "address"
        },
        {
          "internalType": "address",
          "name": "operator",
          "type": "address"
        }
      ],
      "name": "isApprovedForAll",
      "outputs": [
        {
          "internalType": "bool",
          "name": "",
          "type": "bool"
        }
      ],
      "stateMutability": "view",
      "type": "function"
    },
    {
      "inputs": [
        {
          "internalType": "string",
          "name": "cid",
          "type": "string"
        },
        {
          "internalType": "uint256",
          "name": "price",
          "type": "uint256"
        }
      ],
      "name": "mintNFT",
      "outputs": [
        {
          "internalType": "uint256",
          "name": "",
          "type": "uint256"
        }
      ],
      "stateMutability": "nonpayable",
      "type": "function"
    },
    {
      "inputs": [
        {
          "internalType": "string",
          "name": "cid",
          "type": "string"
        }
      ],
      "name": "mintNFTWithoutPrice",
      "outputs": [
        {
          "internalType": "uint256",
          "name": "",
          "type": "uint256"
        }
      ],
      "stateMutability": "nonpayable",
      "type": "function"
    },
    {
      "inputs": [],
      "name": "name",
      "outputs": [
        {
          "internalType": "string",
          "name": "",
          "type": "string"
        }
      ],
      "stateMutability": "view",
      "type": "function"
    },
    {
      "inputs": [
        {
          "internalType": "uint256",
          "name": "",
          "type": "uint256"
        }
      ],
      "name": "nfts",
      "outputs": [
        {
          "internalType": "uint256",
          "name": "price",
          "type": "uint256"
        },
        {
          "internalType": "bool",
          "name": "isForSale",
          "type": "bool"
        }
      ],
      "stateMutability": "view",
      "type": "function"
    },
    {
      "inputs": [],
      "name": "owner",
      "outputs": [
        {
          "internalType": "address",
          "name": "",
          "type": "address"
        }
      ],
      "stateMutability": "view",
      "type": "function"
    },
    {
      "inputs": [
        {
          "internalType": "uint256",
          "name": "tokenId",
          "type": "uint256"
        }
      ],
      "name": "ownerOf",
      "outputs": [
        {
          "internalType": "address",
          "name": "",
          "type": "address"
        }
      ],
      "stateMutability": "view",
      "type": "function"
    },
    {
      "inputs": [],
      "name": "renounceOwnership",
      "outputs": [],
      "stateMutability": "nonpayable",
      "type": "function"
    },
    {
      "inputs": [
        {
          "internalType": "address",
          "name": "from",
          "type": "address"
        },
        {
          "internalType": "address",
          "name": "to",
          "type": "address"
        },
        {
          "internalType": "uint256",
          "name": "tokenId",
          "type": "uint256"
        }
      ],
      "name": "safeTransferFrom",
      "outputs": [],
      "stateMutability": "nonpayable",
      "type": "function"
    },
    {
      "inputs": [
        {
          "internalType": "address",
          "name": "from",
          "type": "address"
        },
        {
          "internalType": "address",
          "name": "to",
          "type": "address"
        },
        {
          "internalType": "uint256",
          "name": "tokenId",
          "type": "uint256"
        },
        {
          "internalType": "bytes",
          "name": "data",
          "type": "bytes"
        }
      ],
      "name": "safeTransferFrom",
      "outputs": [],
      "stateMutability": "nonpayable",
      "type": "function"
    },
    {
      "inputs": [
        {
          "internalType": "address",
          "name": "operator",
          "type": "address"
        },
        {
          "internalType": "bool",
          "name": "approved",
          "type": "bool"
        }
      ],
      "name": "setApprovalForAll",
      "outputs": [],
      "stateMutability": "nonpayable",
      "type": "function"
    },
    {
      "inputs": [
        {
          "internalType": "uint256",
          "name": "tokenId",
          "type": "uint256"
        },
        {
          "internalType": "uint256",
          "name": "price",
          "type": "uint256"
        }
      ],
      "name": "setForSale",
      "outputs": [],
      "stateMutability": "nonpayable",
      "type": "function"
    },
    {
      "inputs": [
        {
          "internalType": "string",
          "name": "resourceBase",
          "type": "string"
        }
      ],
      "name": "setResourceBase",
      "outputs": [],
      "stateMutability": "nonpayable",
      "type": "function"
    },
    {
      "inputs": [
        {
          "internalType": "bytes4",
          "name": "interfaceId",
          "type": "bytes4"
        }
      ],
      "name": "supportsInterface",
      "outputs": [
        {
          "internalType": "bool",
          "name": "",
          "type": "bool"
        }
      ],
      "stateMutability": "view",
      "type": "function"
    },
    {
      "inputs": [],
      "name": "symbol",
      "outputs": [
        {
          "internalType": "string",
          "name": "",
          "type": "string"
        }
      ],
      "stateMutability": "view",
      "type": "function"
    },
    {
      "inputs": [
        {
          "internalType": "uint256",
          "name": "tokenId",
          "type": "uint256"
        }
      ],
      "name": "tokenURI",
      "outputs": [
        {
          "internalType": "string",
          "name": "",
          "type": "string"
        }
      ],
      "stateMutability": "view",
      "type": "function"
    },
    {
      "inputs": [
        {
          "internalType": "address",
          "name": "from",
          "type": "address"
        },
        {
          "internalType": "address",
          "name": "to",
          "type": "address"
        },
        {
          "internalType": "uint256",
          "name": "tokenId",
          "type": "uint256"
        }
      ],
      "name": "transferFrom",
      "outputs": [],
      "stateMutability": "nonpayable",
      "type": "function"
    },
    {
      "inputs": [
        {
          "internalType": "address",
          "name": "newOwner",
          "type": "address"
        }
      ],
      "name": "transferOwnership",
      "outputs": [],
      "stateMutability": "nonpayable",
      "type": "function"
    }
  ],
  "bytecode": "0x6080604052348015600f57600080fd5b506133a88061001f6000396000f3fe6080604052600436106101665760003560e01c80636352211e116100d1578063a22cb4651161008a578063d9eb1ca311610064578063d9eb1ca31461052a578063e838e23914610555578063e985e9c514610592578063f2fde38b146105cf57610166565b8063a22cb4651461049b578063b88d4fde146104c4578063c87b56dd146104ed57610166565b80636352211e1461039d57806370a08231146103da578063715018a6146104175780638129fc1c1461042e5780638da5cb5b1461044557806395d89b411461047057610166565b806323b872dd1161012357806323b872dd1461028b578063265aa621146102b457806342842e0e146102f257806342966c681461031b57806351ed8288146103445780635afa3a721461036057610166565b806301ffc9a71461016b57806306fdde03146101a8578063081812fc146101d3578063095ea7b31461021057806310d9db261461023957806317fcfe2214610262575b600080fd5b34801561017757600080fd5b50610192600480360381019061018d919061249b565b6105f8565b60405161019f91906124e3565b60405180910390f35b3480156101b457600080fd5b506101bd610659565b6040516101ca919061258e565b60405180910390f35b3480156101df57600080fd5b506101fa60048036038101906101f591906125e6565b6106fa565b6040516102079190612654565b60405180910390f35b34801561021c57600080fd5b506102376004803603810190610232919061269b565b610716565b005b34801561024557600080fd5b50610260600480360381019061025b9190612810565b61072c565b005b34801561026e57600080fd5b5061028960048036038101906102849190612859565b610747565b005b34801561029757600080fd5b506102b260048036038101906102ad9190612899565b61080b565b005b3480156102c057600080fd5b506102db60048036038101906102d691906125e6565b61090d565b6040516102e99291906128fb565b60405180910390f35b3480156102fe57600080fd5b5061031960048036038101906103149190612899565b61093e565b005b34801561032757600080fd5b50610342600480360381019061033d91906125e6565b61095e565b005b61035e600480360381019061035991906125e6565b610991565b005b34801561036c57600080fd5b5061038760048036038101906103829190612924565b610b44565b6040516103949190612980565b60405180910390f35b3480156103a957600080fd5b506103c460048036038101906103bf91906125e6565b610bf4565b6040516103d19190612654565b60405180910390f35b3480156103e657600080fd5b5061040160048036038101906103fc919061299b565b610c06565b60405161040e9190612980565b60405180910390f35b34801561042357600080fd5b5061042c610ccf565b005b34801561043a57600080fd5b50610443610ce3565b005b34801561045157600080fd5b5061045a610f1d565b6040516104679190612654565b60405180910390f35b34801561047c57600080fd5b50610485610f55565b604051610492919061258e565b60405180910390f35b3480156104a757600080fd5b506104c260048036038101906104bd91906129f4565b610ff6565b005b3480156104d057600080fd5b506104eb60048036038101906104e69190612ad5565b61100c565b005b3480156104f957600080fd5b50610514600480360381019061050f91906125e6565b611031565b604051610521919061258e565b60405180910390f35b34801561053657600080fd5b5061053f61106f565b60405161054c919061258e565b60405180910390f35b34801561056157600080fd5b5061057c60048036038101906105779190612810565b611101565b6040516105899190612980565b60405180910390f35b34801561059e57600080fd5b506105b960048036038101906105b49190612b58565b611158565b6040516105c691906124e3565b60405180910390f35b3480156105db57600080fd5b506105f660048036038101906105f1919061299b565b6111fa565b005b6000634906490660e01b7bffffffffffffffffffffffffffffffffffffffffffffffffffffffff1916827bffffffffffffffffffffffffffffffffffffffffffffffffffffffff19161480610652575061065182611280565b5b9050919050565b60606000610665611362565b905080600001805461067690612bc7565b80601f01602080910402602001604051908101604052809291908181526020018280546106a290612bc7565b80156106ef5780601f106106c4576101008083540402835291602001916106ef565b820191906000526020600020905b8154815290600101906020018083116106d257829003601f168201915b505050505091505090565b60006107058261138a565b5061070f82611412565b9050919050565b610728828261072361145d565b611465565b5050565b610734611477565b80600090816107439190612da4565b5050565b3373ffffffffffffffffffffffffffffffffffffffff1661076783610bf4565b73ffffffffffffffffffffffffffffffffffffffff16146107bd576040517f08c379a00000000000000000000000000000000000000000000000000000000081526004016107b490612ec2565b60405180910390fd5b80600260008481526020019081526020016000206000018190555060016002600084815260200190815260200160002060010160006101000a81548160ff0219169083151502179055505050565b600073ffffffffffffffffffffffffffffffffffffffff168273ffffffffffffffffffffffffffffffffffffffff160361087d5760006040517f64a0ae920000000000000000000000000000000000000000000000000000000081526004016108749190612654565b60405180910390fd5b6000610891838361088c61145d565b6114fe565b90508373ffffffffffffffffffffffffffffffffffffffff168173ffffffffffffffffffffffffffffffffffffffff1614610907578382826040517f64283d7b0000000000000000000000000000000000000000000000000000000081526004016108fe93929190612ee2565b60405180910390fd5b50505050565b60026020528060005260406000206000915090508060000154908060010160009054906101000a900460ff16905082565b6109598383836040518060200160405280600081525061100c565b505050565b610966611477565b61096f8161172b565b60036000828152602001908152602001600020600061098e91906123d2565b50565b6002600082815260200190815260200160002060010160009054906101000a900460ff166109f4576040517f08c379a00000000000000000000000000000000000000000000000000000000081526004016109eb90612f65565b60405180910390fd5b60026000828152602001908152602001600020600001543414610a4c576040517f08c379a0000000000000000000000000000000000000000000000000000000008152600401610a4390612fd1565b60405180910390fd5b6000610a5782610bf4565b905060006002600084815260200190815260200160002060010160006101000a81548160ff021916908315150217905550610a938133846117b1565b60008173ffffffffffffffffffffffffffffffffffffffff1634604051610ab990613022565b60006040518083038185875af1925050503d8060008114610af6576040519150601f19603f3d011682016040523d82523d6000602084013e610afb565b606091505b5050905080610b3f576040517f08c379a0000000000000000000000000000000000000000000000000000000008152600401610b3690613083565b60405180910390fd5b505050565b6000610b4e611477565b6000600160008154610b5f906130d2565b9190508190559050610b71338261191e565b83600360008381526020019081526020016000209081610b919190612da4565b50604051806040016040528084815260200160011515815250600260008381526020019081526020016000206000820151816000015560208201518160010160006101000a81548160ff0219169083151502179055509050508091505092915050565b6000610bff8261138a565b9050919050565b600080610c11611362565b9050600073ffffffffffffffffffffffffffffffffffffffff168373ffffffffffffffffffffffffffffffffffffffff1603610c855760006040517f89c62b64000000000000000000000000000000000000000000000000000000008152600401610c7c9190612654565b60405180910390fd5b8060030160008473ffffffffffffffffffffffffffffffffffffffff1673ffffffffffffffffffffffffffffffffffffffff16815260200190815260200160002054915050919050565b610cd7611477565b610ce16000611a17565b565b6000610ced611aee565b905060008160000160089054906101000a900460ff1615905060008260000160009054906101000a900467ffffffffffffffff1690506000808267ffffffffffffffff16148015610d3b5750825b9050600060018367ffffffffffffffff16148015610d70575060003073ffffffffffffffffffffffffffffffffffffffff163b145b905081158015610d7e575080155b15610db5576040517ff92ee8a900000000000000000000000000000000000000000000000000000000815260040160405180910390fd5b60018560000160006101000a81548167ffffffffffffffff021916908367ffffffffffffffff1602179055508315610e055760018560000160086101000a81548160ff0219169083151502179055505b610e0d611b16565b610e816040518060400160405280600b81526020017f4d722e20415254424942490000000000000000000000000000000000000000008152506040518060400160405280600481526020017f4249424900000000000000000000000000000000000000000000000000000000815250611b20565b610e8a33611b36565b6040518060600160405280603081526020016133436030913960009081610eb19190612da4565b5060006001819055508315610f165760008560000160086101000a81548160ff0219169083151502179055507fc7f505b2f371ae2175ee4913f4499e1f2633a7b5936321eed1cdaeb6115181d26001604051610f0d9190613169565b60405180910390a15b5050505050565b600080610f28611b4a565b90508060000160009054906101000a900473ffffffffffffffffffffffffffffffffffffffff1691505090565b60606000610f61611362565b9050806001018054610f7290612bc7565b80601f0160208091040260200160405190810160405280929190818152602001828054610f9e90612bc7565b8015610feb5780601f10610fc057610100808354040283529160200191610feb565b820191906000526020600020905b815481529060010190602001808311610fce57829003601f168201915b505050505091505090565b61100861100161145d565b8383611b72565b5050565b61101784848461080b565b61102b61102261145d565b85858585611cf0565b50505050565b6060600060036000848152602001908152602001600020604051602001611059929190613212565b6040516020818303038152906040529050919050565b60606000805461107e90612bc7565b80601f01602080910402602001604051908101604052809291908181526020018280546110aa90612bc7565b80156110f75780601f106110cc576101008083540402835291602001916110f7565b820191906000526020600020905b8154815290600101906020018083116110da57829003601f168201915b5050505050905090565b600061110b611477565b600060016000815461111c906130d2565b919050819055905061112e338261191e565b8260036000838152602001908152602001600020908161114e9190612da4565b5080915050919050565b600080611163611362565b90508060050160008573ffffffffffffffffffffffffffffffffffffffff1673ffffffffffffffffffffffffffffffffffffffff16815260200190815260200160002060008473ffffffffffffffffffffffffffffffffffffffff1673ffffffffffffffffffffffffffffffffffffffff16815260200190815260200160002060009054906101000a900460ff1691505092915050565b611202611477565b600073ffffffffffffffffffffffffffffffffffffffff168173ffffffffffffffffffffffffffffffffffffffff16036112745760006040517f1e4fbdf700000000000000000000000000000000000000000000000000000000815260040161126b9190612654565b60405180910390fd5b61127d81611a17565b50565b60007f80ac58cd000000000000000000000000000000000000000000000000000000007bffffffffffffffffffffffffffffffffffffffffffffffffffffffff1916827bffffffffffffffffffffffffffffffffffffffffffffffffffffffff1916148061134b57507f5b5e139f000000000000000000000000000000000000000000000000000000007bffffffffffffffffffffffffffffffffffffffffffffffffffffffff1916827bffffffffffffffffffffffffffffffffffffffffffffffffffffffff1916145b8061135b575061135a82611ea1565b5b9050919050565b60007f80bb2b638cc20bc4d0a60d66940f3ab4a00c1d7b313497ca82fb0b4ab0079300905090565b60008061139683611f0b565b9050600073ffffffffffffffffffffffffffffffffffffffff168173ffffffffffffffffffffffffffffffffffffffff160361140957826040517f7e2732890000000000000000000000000000000000000000000000000000000081526004016114009190612980565b60405180910390fd5b80915050919050565b60008061141d611362565b905080600401600084815260200190815260200160002060009054906101000a900473ffffffffffffffffffffffffffffffffffffffff16915050919050565b600033905090565b6114728383836001611f56565b505050565b61147f61145d565b73ffffffffffffffffffffffffffffffffffffffff1661149d610f1d565b73ffffffffffffffffffffffffffffffffffffffff16146114fc576114c061145d565b6040517f118cdaa70000000000000000000000000000000000000000000000000000000081526004016114f39190612654565b60405180910390fd5b565b600080611509611362565b9050600061151685611f0b565b9050600073ffffffffffffffffffffffffffffffffffffffff168473ffffffffffffffffffffffffffffffffffffffff16146115585761155781858761212a565b5b600073ffffffffffffffffffffffffffffffffffffffff168173ffffffffffffffffffffffffffffffffffffffff16146115eb5761159a600086600080611f56565b60018260030160008373ffffffffffffffffffffffffffffffffffffffff1673ffffffffffffffffffffffffffffffffffffffff168152602001908152602001600020600082825403925050819055505b600073ffffffffffffffffffffffffffffffffffffffff168673ffffffffffffffffffffffffffffffffffffffff16146116705760018260030160008873ffffffffffffffffffffffffffffffffffffffff1673ffffffffffffffffffffffffffffffffffffffff168152602001908152602001600020600082825401925050819055505b8582600201600087815260200190815260200160002060006101000a81548173ffffffffffffffffffffffffffffffffffffffff021916908373ffffffffffffffffffffffffffffffffffffffff160217905550848673ffffffffffffffffffffffffffffffffffffffff168273ffffffffffffffffffffffffffffffffffffffff167fddf252ad1be2c89b69c2b068fc378daa952ba7f163c4a11628f55a4df523b3ef60405160405180910390a480925050509392505050565b600061173a60008360006114fe565b9050600073ffffffffffffffffffffffffffffffffffffffff168173ffffffffffffffffffffffffffffffffffffffff16036117ad57816040517f7e2732890000000000000000000000000000000000000000000000000000000081526004016117a49190612980565b60405180910390fd5b5050565b600073ffffffffffffffffffffffffffffffffffffffff168273ffffffffffffffffffffffffffffffffffffffff16036118235760006040517f64a0ae9200000000000000000000000000000000000000000000000000000000815260040161181a9190612654565b60405180910390fd5b6000611831838360006114fe565b9050600073ffffffffffffffffffffffffffffffffffffffff168173ffffffffffffffffffffffffffffffffffffffff16036118a457816040517f7e27328900000000000000000000000000000000000000000000000000000000815260040161189b9190612980565b60405180910390fd5b8373ffffffffffffffffffffffffffffffffffffffff168173ffffffffffffffffffffffffffffffffffffffff1614611918578382826040517f64283d7b00000000000000000000000000000000000000000000000000000000815260040161190f93929190612ee2565b60405180910390fd5b50505050565b600073ffffffffffffffffffffffffffffffffffffffff168273ffffffffffffffffffffffffffffffffffffffff16036119905760006040517f64a0ae920000000000000000000000000000000000000000000000000000000081526004016119879190612654565b60405180910390fd5b600061199e838360006114fe565b9050600073ffffffffffffffffffffffffffffffffffffffff168173ffffffffffffffffffffffffffffffffffffffff1614611a125760006040517f73c6ac6e000000000000000000000000000000000000000000000000000000008152600401611a099190612654565b60405180910390fd5b505050565b6000611a21611b4a565b905060008160000160009054906101000a900473ffffffffffffffffffffffffffffffffffffffff169050828260000160006101000a81548173ffffffffffffffffffffffffffffffffffffffff021916908373ffffffffffffffffffffffffffffffffffffffff1602179055508273ffffffffffffffffffffffffffffffffffffffff168173ffffffffffffffffffffffffffffffffffffffff167f8be0079c531659141344cd1fd0a4f28419497f9722a3daafe3b4186f6b6457e060405160405180910390a3505050565b60007ff0c57e16840df040f15088dc2f81fe391c3923bec73e23a9662efc9c229c6a00905090565b611b1e6121ee565b565b611b286121ee565b611b32828261222e565b5050565b611b3e6121ee565b611b478161226b565b50565b60007f9016d09d72d40fdae2fd8ceac6b6234c7706214fd39c1cd1e609a0528c199300905090565b6000611b7c611362565b9050600073ffffffffffffffffffffffffffffffffffffffff168373ffffffffffffffffffffffffffffffffffffffff1603611bef57826040517f5b08ba18000000000000000000000000000000000000000000000000000000008152600401611be69190612654565b60405180910390fd5b818160050160008673ffffffffffffffffffffffffffffffffffffffff1673ffffffffffffffffffffffffffffffffffffffff16815260200190815260200160002060008573ffffffffffffffffffffffffffffffffffffffff1673ffffffffffffffffffffffffffffffffffffffff16815260200190815260200160002060006101000a81548160ff0219169083151502179055508273ffffffffffffffffffffffffffffffffffffffff168473ffffffffffffffffffffffffffffffffffffffff167f17307eab39ab6107e8899845ad3d59bd9653f200f220920489ca2b5937696c3184604051611ce291906124e3565b60405180910390a350505050565b60008373ffffffffffffffffffffffffffffffffffffffff163b1115611e9a578273ffffffffffffffffffffffffffffffffffffffff1663150b7a02868685856040518563ffffffff1660e01b8152600401611d4f949392919061328b565b6020604051808303816000875af1925050508015611d8b57506040513d601f19601f82011682018060405250810190611d8891906132ec565b60015b611e0f573d8060008114611dbb576040519150601f19603f3d011682016040523d82523d6000602084013e611dc0565b606091505b506000815103611e0757836040517f64a0ae92000000000000000000000000000000000000000000000000000000008152600401611dfe9190612654565b60405180910390fd5b805181602001fd5b63150b7a0260e01b7bffffffffffffffffffffffffffffffffffffffffffffffffffffffff1916817bffffffffffffffffffffffffffffffffffffffffffffffffffffffff191614611e9857836040517f64a0ae92000000000000000000000000000000000000000000000000000000008152600401611e8f9190612654565b60405180910390fd5b505b5050505050565b60007f01ffc9a7000000000000000000000000000000000000000000000000000000007bffffffffffffffffffffffffffffffffffffffffffffffffffffffff1916827bffffffffffffffffffffffffffffffffffffffffffffffffffffffff1916149050919050565b600080611f16611362565b905080600201600084815260200190815260200160002060009054906101000a900473ffffffffffffffffffffffffffffffffffffffff16915050919050565b6000611f60611362565b90508180611f9b5750600073ffffffffffffffffffffffffffffffffffffffff168373ffffffffffffffffffffffffffffffffffffffff1614155b156120cf576000611fab8561138a565b9050600073ffffffffffffffffffffffffffffffffffffffff168473ffffffffffffffffffffffffffffffffffffffff161415801561201657508373ffffffffffffffffffffffffffffffffffffffff168173ffffffffffffffffffffffffffffffffffffffff1614155b801561202957506120278185611158565b155b1561206b57836040517fa9fbf51f0000000000000000000000000000000000000000000000000000000081526004016120629190612654565b60405180910390fd5b82156120cd57848673ffffffffffffffffffffffffffffffffffffffff168273ffffffffffffffffffffffffffffffffffffffff167f8c5be1e5ebec7d5bd14f71427d1e84f3dd0314c0f7b2291e5b200ac8c7c3b92560405160405180910390a45b505b8481600401600086815260200190815260200160002060006101000a81548173ffffffffffffffffffffffffffffffffffffffff021916908373ffffffffffffffffffffffffffffffffffffffff1602179055505050505050565b6121358383836122f1565b6121e957600073ffffffffffffffffffffffffffffffffffffffff168373ffffffffffffffffffffffffffffffffffffffff16036121aa57806040517f7e2732890000000000000000000000000000000000000000000000000000000081526004016121a19190612980565b60405180910390fd5b81816040517f177e802f0000000000000000000000000000000000000000000000000000000081526004016121e0929190613319565b60405180910390fd5b505050565b6121f66123b2565b61222c576040517fd7e6bcf800000000000000000000000000000000000000000000000000000000815260040160405180910390fd5b565b6122366121ee565b6000612240611362565b9050828160000190816122539190612da4565b50818160010190816122659190612da4565b50505050565b6122736121ee565b600073ffffffffffffffffffffffffffffffffffffffff168173ffffffffffffffffffffffffffffffffffffffff16036122e55760006040517f1e4fbdf70000000000000000000000000000000000000000000000000000000081526004016122dc9190612654565b60405180910390fd5b6122ee81611a17565b50565b60008073ffffffffffffffffffffffffffffffffffffffff168373ffffffffffffffffffffffffffffffffffffffff16141580156123a957508273ffffffffffffffffffffffffffffffffffffffff168473ffffffffffffffffffffffffffffffffffffffff16148061236a57506123698484611158565b5b806123a857508273ffffffffffffffffffffffffffffffffffffffff1661239083611412565b73ffffffffffffffffffffffffffffffffffffffff16145b5b90509392505050565b60006123bc611aee565b60000160089054906101000a900460ff16905090565b5080546123de90612bc7565b6000825580601f106123f0575061240f565b601f01602090049060005260206000209081019061240e9190612412565b5b50565b5b8082111561242b576000816000905550600101612413565b5090565b6000604051905090565b600080fd5b600080fd5b60007fffffffff0000000000000000000000000000000000000000000000000000000082169050919050565b61247881612443565b811461248357600080fd5b50565b6000813590506124958161246f565b92915050565b6000602082840312156124b1576124b0612439565b5b60006124bf84828501612486565b91505092915050565b60008115159050919050565b6124dd816124c8565b82525050565b60006020820190506124f860008301846124d4565b92915050565b600081519050919050565b600082825260208201905092915050565b60005b8381101561253857808201518184015260208101905061251d565b60008484015250505050565b6000601f19601f8301169050919050565b6000612560826124fe565b61256a8185612509565b935061257a81856020860161251a565b61258381612544565b840191505092915050565b600060208201905081810360008301526125a88184612555565b905092915050565b6000819050919050565b6125c3816125b0565b81146125ce57600080fd5b50565b6000813590506125e0816125ba565b92915050565b6000602082840312156125fc576125fb612439565b5b600061260a848285016125d1565b91505092915050565b600073ffffffffffffffffffffffffffffffffffffffff82169050919050565b600061263e82612613565b9050919050565b61264e81612633565b82525050565b60006020820190506126696000830184612645565b92915050565b61267881612633565b811461268357600080fd5b50565b6000813590506126958161266f565b92915050565b600080604083850312156126b2576126b1612439565b5b60006126c085828601612686565b92505060206126d1858286016125d1565b9150509250929050565b600080fd5b600080fd5b7f4e487b7100000000000000000000000000000000000000000000000000000000600052604160045260246000fd5b61271d82612544565b810181811067ffffffffffffffff8211171561273c5761273b6126e5565b5b80604052505050565b600061274f61242f565b905061275b8282612714565b919050565b600067ffffffffffffffff82111561277b5761277a6126e5565b5b61278482612544565b9050602081019050919050565b82818337600083830152505050565b60006127b36127ae84612760565b612745565b9050828152602081018484840111156127cf576127ce6126e0565b5b6127da848285612791565b509392505050565b600082601f8301126127f7576127f66126db565b5b81356128078482602086016127a0565b91505092915050565b60006020828403121561282657612825612439565b5b600082013567ffffffffffffffff8111156128445761284361243e565b5b612850848285016127e2565b91505092915050565b600080604083850312156128705761286f612439565b5b600061287e858286016125d1565b925050602061288f858286016125d1565b9150509250929050565b6000806000606084860312156128b2576128b1612439565b5b60006128c086828701612686565b93505060206128d186828701612686565b92505060406128e2868287016125d1565b9150509250925092565b6128f5816125b0565b82525050565b600060408201905061291060008301856128ec565b61291d60208301846124d4565b9392505050565b6000806040838503121561293b5761293a612439565b5b600083013567ffffffffffffffff8111156129595761295861243e565b5b612965858286016127e2565b9250506020612976858286016125d1565b9150509250929050565b600060208201905061299560008301846128ec565b92915050565b6000602082840312156129b1576129b0612439565b5b60006129bf84828501612686565b91505092915050565b6129d1816124c8565b81146129dc57600080fd5b50565b6000813590506129ee816129c8565b92915050565b60008060408385031215612a0b57612a0a612439565b5b6000612a1985828601612686565b9250506020612a2a858286016129df565b9150509250929050565b600067ffffffffffffffff821115612a4f57612a4e6126e5565b5b612a5882612544565b9050602081019050919050565b6000612a78612a7384612a34565b612745565b905082815260208101848484011115612a9457612a936126e0565b5b612a9f848285612791565b509392505050565b600082601f830112612abc57612abb6126db565b5b8135612acc848260208601612a65565b91505092915050565b60008060008060808587031215612aef57612aee612439565b5b6000612afd87828801612686565b9450506020612b0e87828801612686565b9350506040612b1f878288016125d1565b925050606085013567ffffffffffffffff811115612b4057612b3f61243e565b5b612b4c87828801612aa7565b91505092959194509250565b60008060408385031215612b6f57612b6e612439565b5b6000612b7d85828601612686565b9250506020612b8e85828601612686565b9150509250929050565b7f4e487b7100000000000000000000000000000000000000000000000000000000600052602260045260246000fd5b60006002820490506001821680612bdf57607f821691505b602082108103612bf257612bf1612b98565b5b50919050565b60008190508160005260206000209050919050565b60006020601f8301049050919050565b600082821b905092915050565b600060088302612c5a7fffffffffffffffffffffffffffffffffffffffffffffffffffffffffffffffff82612c1d565b612c648683612c1d565b95508019841693508086168417925050509392505050565b6000819050919050565b6000612ca1612c9c612c97846125b0565b612c7c565b6125b0565b9050919050565b6000819050919050565b612cbb83612c86565b612ccf612cc782612ca8565b848454612c2a565b825550505050565b600090565b612ce4612cd7565b612cef818484612cb2565b505050565b5b81811015612d1357612d08600082612cdc565b600181019050612cf5565b5050565b601f821115612d5857612d2981612bf8565b612d3284612c0d565b81016020851015612d41578190505b612d55612d4d85612c0d565b830182612cf4565b50505b505050565b600082821c905092915050565b6000612d7b60001984600802612d5d565b1980831691505092915050565b6000612d948383612d6a565b9150826002028217905092915050565b612dad826124fe565b67ffffffffffffffff811115612dc657612dc56126e5565b5b612dd08254612bc7565b612ddb828285612d17565b600060209050601f831160018114612e0e5760008415612dfc578287015190505b612e068582612d88565b865550612e6e565b601f198416612e1c86612bf8565b60005b82811015612e4457848901518255600182019150602085019450602081019050612e1f565b86831015612e615784890151612e5d601f891682612d6a565b8355505b6001600288020188555050505b505050505050565b7f596f7520617265206e6f7420746865206f776e65720000000000000000000000600082015250565b6000612eac601583612509565b9150612eb782612e76565b602082019050919050565b60006020820190508181036000830152612edb81612e9f565b9050919050565b6000606082019050612ef76000830186612645565b612f0460208301856128ec565b612f116040830184612645565b949350505050565b7f4e4654206973206e6f7420666f722073616c6500000000000000000000000000600082015250565b6000612f4f601383612509565b9150612f5a82612f19565b602082019050919050565b60006020820190508181036000830152612f7e81612f42565b9050919050565b7f496e636f72726563742070726963650000000000000000000000000000000000600082015250565b6000612fbb600f83612509565b9150612fc682612f85565b602082019050919050565b60006020820190508181036000830152612fea81612fae565b9050919050565b600081905092915050565b50565b600061300c600083612ff1565b915061301782612ffc565b600082019050919050565b600061302d82612fff565b9150819050919050565b7f4661696c656420746f2073656e64204574686572000000000000000000000000600082015250565b600061306d601483612509565b915061307882613037565b602082019050919050565b6000602082019050818103600083015261309c81613060565b9050919050565b7f4e487b7100000000000000000000000000000000000000000000000000000000600052601160045260246000fd5b60006130dd826125b0565b91507fffffffffffffffffffffffffffffffffffffffffffffffffffffffffffffffff820361310f5761310e6130a3565b5b600182019050919050565b6000819050919050565b600067ffffffffffffffff82169050919050565b600061315361314e6131498461311a565b612c7c565b613124565b9050919050565b61316381613138565b82525050565b600060208201905061317e600083018461315a565b92915050565b600081905092915050565b6000815461319c81612bc7565b6131a68186613184565b945060018216600081146131c157600181146131d657613209565b60ff1983168652811515820286019350613209565b6131df85612bf8565b60005b83811015613201578154818901526001820191506020810190506131e2565b838801955050505b50505092915050565b600061321e828561318f565b915061322a828461318f565b91508190509392505050565b600081519050919050565b600082825260208201905092915050565b600061325d82613236565b6132678185613241565b935061327781856020860161251a565b61328081612544565b840191505092915050565b60006080820190506132a06000830187612645565b6132ad6020830186612645565b6132ba60408301856128ec565b81810360608301526132cc8184613252565b905095945050505050565b6000815190506132e68161246f565b92915050565b60006020828403121561330257613301612439565b5b6000613310848285016132d7565b91505092915050565b600060408201905061332e6000830185612645565b61333b60208301846128ec565b939250505056fe68747470733a2f2f7465616c2d746f74616c2d706f6e792d3137342e6d7970696e6174612e636c6f75642f697066732fa26469706673582212207d4b42c19da584867f3f1afc88d56612591496cd76c7d9d474c9eab85f86813a64736f6c634300081c0033",
  "linkReferences": {},
  "deployedLinkReferences": {}
}